{
  "_format": "hh-sol-artifact-1",
  "contractName": "BytecodeMatcher",
  "sourceName": "contracts/verifiers/BytecodeMatcher.sol",
  "abi": [
    {
      "constant": true,
      "inputs": [],
      "name": "codeHash",
      "outputs": [
        {
          "internalType": "bytes32",
          "name": "",
          "type": "bytes32"
        }
      ],
      "payable": false,
      "stateMutability": "view",
      "type": "function"
    },
    {
      "constant": true,
      "inputs": [],
      "name": "codeSample",
      "outputs": [
        {
          "internalType": "address",
          "name": "",
          "type": "address"
        }
      ],
      "payable": false,
      "stateMutability": "view",
      "type": "function"
    },
    {
      "constant": false,
      "inputs": [
        {
          "internalType": "address",
          "name": "_codeSample",
          "type": "address"
        }
      ],
      "name": "initialize",
      "outputs": [],
      "payable": false,
      "stateMutability": "nonpayable",
      "type": "function"
    },
    {
      "constant": true,
      "inputs": [
        {
          "internalType": "uint256",
          "name": "",
          "type": "uint256"
        },
        {
          "internalType": "address",
          "name": "propAddr",
          "type": "address"
        }
      ],
      "name": "verifyProposalContract",
      "outputs": [
        {
          "internalType": "bool",
          "name": "",
          "type": "bool"
        }
      ],
      "payable": false,
      "stateMutability": "view",
      "type": "function"
    },
    {
      "constant": true,
      "inputs": [
        {
          "internalType": "uint256",
          "name": "",
          "type": "uint256"
        },
        {
          "internalType": "enum Proposal.ExecType",
          "name": "",
          "type": "uint8"
        },
        {
          "internalType": "uint256",
          "name": "",
          "type": "uint256"
        },
        {
          "internalType": "uint256",
          "name": "",
          "type": "uint256"
        },
        {
          "internalType": "uint256[]",
          "name": "",
          "type": "uint256[]"
        },
        {
          "internalType": "uint256",
          "name": "",
          "type": "uint256"
        },
        {
          "internalType": "uint256",
          "name": "",
          "type": "uint256"
        },
        {
          "internalType": "uint256",
          "name": "",
          "type": "uint256"
        }
      ],
      "name": "verifyProposalParams",
      "outputs": [
        {
          "internalType": "bool",
          "name": "",
          "type": "bool"
        }
      ],
      "payable": false,
      "stateMutability": "view",
      "type": "function"
    }
  ],
  "bytecode": "0x608060405234801561001057600080fd5b50610357806100206000396000f3fe608060405234801561001057600080fd5b50600436106100575760003560e01c8063144558231461005c57806318edaaf214610080578063c4d66de81461009a578063d294ed28146100c2578063f3f4ef7914610102575b600080fd5b61006461019a565b604080516001600160a01b039092168252519081900360200190f35b6100886101a9565b60408051918252519081900360200190f35b6100c0600480360360208110156100b057600080fd5b50356001600160a01b03166101af565b005b6100ee600480360360408110156100d857600080fd5b50803590602001356001600160a01b0316610280565b604080519115158252519081900360200190f35b6100ee600480360361010081101561011957600080fd5b81359160ff6020820135169160408201359160608101359181019060a08101608082013564010000000081111561014f57600080fd5b82018360208201111561016157600080fd5b8035906020019184602083028401116401000000008311171561018357600080fd5b91935091508035906020810135906040013561029f565b6033546001600160a01b031681565b60345481565b600054610100900460ff16806101c857506101c86102ae565b806101d6575060005460ff16155b6102115760405162461bcd60e51b815260040180806020018281038252602e8152602001806102f5602e913960400191505060405180910390fd5b600054610100900460ff1615801561023c576000805460ff1961ff0019909116610100171660011790555b603380546001600160a01b0319166001600160a01b03848116919091179182905561026791166102b4565b603455801561027c576000805461ff00191690555b5050565b6000603454610297836001600160a01b03166102b4565b149392505050565b60019998505050505050505050565b303b1590565b60006102bf826102cd565b805190602001209050919050565b60408051603f833b908101601f191682019092528181529080600060208401853c5091905056fe436f6e747261637420696e7374616e63652068617320616c7265616479206265656e20696e697469616c697a6564a265627a7a7231582077aa2a5335c48f4e53e3377b6d099f21b787817ff5327046a396684f0ba8ce4664736f6c63430005110032",
  "linkReferences": {},
  "deployedLinkReferences": {}
}