{
  "_format": "hh-sol-artifact-1",
  "contractName": "ExplicitProposal",
  "sourceName": "contracts/proposal/test/ExplicitProposal.sol",
  "abi": [
    {
      "constant": true,
      "inputs": [],
      "name": "description",
      "outputs": [
        {
          "internalType": "string",
          "name": "",
          "type": "string"
        }
      ],
      "payable": false,
      "stateMutability": "view",
      "type": "function"
    },
    {
      "constant": true,
      "inputs": [],
      "name": "executable",
      "outputs": [
        {
          "internalType": "enum Proposal.ExecType",
          "name": "",
          "type": "uint8"
        }
      ],
      "payable": false,
      "stateMutability": "view",
      "type": "function"
    },
    {
      "constant": false,
      "inputs": [
        {
          "internalType": "uint256",
          "name": "",
          "type": "uint256"
        }
      ],
      "name": "execute_call",
      "outputs": [],
      "payable": false,
      "stateMutability": "nonpayable",
      "type": "function"
    },
    {
      "constant": false,
      "inputs": [
        {
          "internalType": "address",
          "name": "",
          "type": "address"
        },
        {
          "internalType": "uint256",
          "name": "",
          "type": "uint256"
        }
      ],
      "name": "execute_delegatecall",
      "outputs": [],
      "payable": false,
      "stateMutability": "nonpayable",
      "type": "function"
    },
    {
      "constant": true,
      "inputs": [],
      "name": "minAgreement",
      "outputs": [
        {
          "internalType": "uint256",
          "name": "",
          "type": "uint256"
        }
      ],
      "payable": false,
      "stateMutability": "view",
      "type": "function"
    },
    {
      "constant": true,
      "inputs": [],
      "name": "minVotes",
      "outputs": [
        {
          "internalType": "uint256",
          "name": "",
          "type": "uint256"
        }
      ],
      "payable": false,
      "stateMutability": "view",
      "type": "function"
    },
    {
      "constant": true,
      "inputs": [],
      "name": "name",
      "outputs": [
        {
          "internalType": "string",
          "name": "",
          "type": "string"
        }
      ],
      "payable": false,
      "stateMutability": "view",
      "type": "function"
    },
    {
      "constant": true,
      "inputs": [],
      "name": "opinionScales",
      "outputs": [
        {
          "internalType": "uint256[]",
          "name": "",
          "type": "uint256[]"
        }
      ],
      "payable": false,
      "stateMutability": "view",
      "type": "function"
    },
    {
      "constant": true,
      "inputs": [],
      "name": "options",
      "outputs": [
        {
          "internalType": "bytes32[]",
          "name": "",
          "type": "bytes32[]"
        }
      ],
      "payable": false,
      "stateMutability": "view",
      "type": "function"
    },
    {
      "constant": true,
      "inputs": [],
      "name": "pType",
      "outputs": [
        {
          "internalType": "uint256",
          "name": "",
          "type": "uint256"
        }
      ],
      "payable": false,
      "stateMutability": "view",
      "type": "function"
    },
    {
      "constant": false,
      "inputs": [
        {
          "internalType": "string",
          "name": "v",
          "type": "string"
        }
      ],
      "name": "setDescription",
      "outputs": [],
      "payable": false,
      "stateMutability": "nonpayable",
      "type": "function"
    },
    {
      "constant": false,
      "inputs": [
        {
          "internalType": "enum Proposal.ExecType",
          "name": "v",
          "type": "uint8"
        }
      ],
      "name": "setExecutable",
      "outputs": [],
      "payable": false,
      "stateMutability": "nonpayable",
      "type": "function"
    },
    {
      "constant": false,
      "inputs": [
        {
          "internalType": "uint256",
          "name": "v",
          "type": "uint256"
        }
      ],
      "name": "setMinAgreement",
      "outputs": [],
      "payable": false,
      "stateMutability": "nonpayable",
      "type": "function"
    },
    {
      "constant": false,
      "inputs": [
        {
          "internalType": "uint256",
          "name": "v",
          "type": "uint256"
        }
      ],
      "name": "setMinVotes",
      "outputs": [],
      "payable": false,
      "stateMutability": "nonpayable",
      "type": "function"
    },
    {
      "constant": false,
      "inputs": [
        {
          "internalType": "string",
          "name": "v",
          "type": "string"
        }
      ],
      "name": "setName",
      "outputs": [],
      "payable": false,
      "stateMutability": "nonpayable",
      "type": "function"
    },
    {
      "constant": false,
      "inputs": [
        {
          "internalType": "uint256[]",
          "name": "v",
          "type": "uint256[]"
        }
      ],
      "name": "setOpinionScales",
      "outputs": [],
      "payable": false,
      "stateMutability": "nonpayable",
      "type": "function"
    },
    {
      "constant": false,
      "inputs": [
        {
          "internalType": "bytes32[]",
          "name": "v",
          "type": "bytes32[]"
        }
      ],
      "name": "setOptions",
      "outputs": [],
      "payable": false,
      "stateMutability": "nonpayable",
      "type": "function"
    },
    {
      "constant": false,
      "inputs": [
        {
          "internalType": "uint256",
          "name": "v",
          "type": "uint256"
        }
      ],
      "name": "setType",
      "outputs": [],
      "payable": false,
      "stateMutability": "nonpayable",
      "type": "function"
    },
    {
      "constant": false,
      "inputs": [
        {
          "internalType": "uint256",
          "name": "v",
          "type": "uint256"
        }
      ],
      "name": "setVotingMaxEndTime",
      "outputs": [],
      "payable": false,
      "stateMutability": "nonpayable",
      "type": "function"
    },
    {
      "constant": false,
      "inputs": [
        {
          "internalType": "uint256",
          "name": "v",
          "type": "uint256"
        }
      ],
      "name": "setVotingMinEndTime",
      "outputs": [],
      "payable": false,
      "stateMutability": "nonpayable",
      "type": "function"
    },
    {
      "constant": false,
      "inputs": [
        {
          "internalType": "uint256",
          "name": "v",
          "type": "uint256"
        }
      ],
      "name": "setVotingStartTime",
      "outputs": [],
      "payable": false,
      "stateMutability": "nonpayable",
      "type": "function"
    },
    {
      "constant": true,
      "inputs": [
        {
          "internalType": "address",
          "name": "verifier",
          "type": "address"
        }
      ],
      "name": "verifyProposalParams",
      "outputs": [
        {
          "internalType": "bool",
          "name": "",
          "type": "bool"
        }
      ],
      "payable": false,
      "stateMutability": "view",
      "type": "function"
    },
    {
      "constant": true,
      "inputs": [],
      "name": "votingMaxEndTime",
      "outputs": [
        {
          "internalType": "uint256",
          "name": "",
          "type": "uint256"
        }
      ],
      "payable": false,
      "stateMutability": "view",
      "type": "function"
    },
    {
      "constant": true,
      "inputs": [],
      "name": "votingMinEndTime",
      "outputs": [
        {
          "internalType": "uint256",
          "name": "",
          "type": "uint256"
        }
      ],
      "payable": false,
      "stateMutability": "view",
      "type": "function"
    },
    {
      "constant": true,
      "inputs": [],
      "name": "votingStartTime",
      "outputs": [
        {
          "internalType": "uint256",
          "name": "",
          "type": "uint256"
        }
      ],
      "payable": false,
      "stateMutability": "view",
      "type": "function"
    }
  ],
  "bytecode": "0x608060405234801561001057600080fd5b50610b48806100206000396000f3fe608060405234801561001057600080fd5b50600436106101735760003560e01c80636f24f8a1116100de578063a813dea611610097578063c47f002711610071578063c47f002714610590578063cb00e7d314610634578063fdc272f21461066e578063ff8bae3d1461068b57610173565b8063a813dea6146104a6578063a84b9f40146104c3578063aa3daba91461056457610173565b80636f24f8a1146103c55780637284e416146103cd5780637e5f9260146103d557806390c3f38f146103f25780639b3a8a0714610496578063a61e393a1461049e57610173565b806337952c0a1161013057806337952c0a1461033e5780633cc228fd1461035e57806363012d01146103665780636388ff4e146103835780636e3b2830146103a05780636eb067a0146103bd57610173565b806306fdde03146101785780631069143a146101f557806316131a181461024d5780631eeca79b146102795780632019a6081461031c578063216b911614610336575b600080fd5b6101806106a8565b6040805160208082528351818301528351919283929083019185019080838360005b838110156101ba5781810151838201526020016101a2565b50505050905090810190601f1680156101e75780820380516001836020036101000a031916815260200191505b509250505060405180910390f35b6101fd61073f565b60408051602080825283518183015283519192839290830191858101910280838360005b83811015610239578181015183820152602001610221565b505050509050019250505060405180910390f35b610255610796565b6040518082600281111561026557fe5b60ff16815260200191505060405180910390f35b61031a6004803603602081101561028f57600080fd5b810190602081018135600160201b8111156102a957600080fd5b8201836020820111156102bb57600080fd5b803590602001918460208302840111600160201b831117156102dc57600080fd5b91908080602002602001604051908101604052809392919081815260200183836020028082843760009201919091525092955061079f945050505050565b005b6103246107b6565b60408051918252519081900360200190f35b6103246107bc565b61031a6004803603602081101561035457600080fd5b503560ff166107c2565b6103246107e3565b61031a6004803603602081101561037c57600080fd5b50356107e9565b61031a6004803603602081101561039957600080fd5b50356107ec565b61031a600480360360208110156103b657600080fd5b50356107f1565b6103246107f6565b6101fd6107fc565b610180610852565b61031a600480360360208110156103eb57600080fd5b50356108b2565b61031a6004803603602081101561040857600080fd5b810190602081018135600160201b81111561042257600080fd5b82018360208201111561043457600080fd5b803590602001918460018302840111600160201b8311171561045557600080fd5b91908080601f0160208091040260200160405190810160405280939291908181526020018383808284376000920191909152509295506108b7945050505050565b6103246108ca565b6103246108d0565b61031a600480360360208110156104bc57600080fd5b50356108d6565b61031a600480360360208110156104d957600080fd5b810190602081018135600160201b8111156104f357600080fd5b82018360208201111561050557600080fd5b803590602001918460208302840111600160201b8311171561052657600080fd5b9190808060200260200160405190810160405280939291908181526020018383602002808284376000920191909152509295506108db945050505050565b61031a6004803603604081101561057a57600080fd5b506001600160a01b0381351690602001356107b2565b61031a600480360360208110156105a657600080fd5b810190602081018135600160201b8111156105c057600080fd5b8201836020820111156105d257600080fd5b803590602001918460018302840111600160201b831117156105f357600080fd5b91908080601f0160208091040260200160405190810160405280939291908181526020018383808284376000920191909152509295506108ee945050505050565b61065a6004803603602081101561064a57600080fd5b50356001600160a01b0316610901565b604080519115158252519081900360200190f35b61031a6004803603602081101561068457600080fd5b5035610a37565b61031a600480360360208110156106a157600080fd5b5035610a3c565b60008054604080516020601f60026000196101006001881615020190951694909404938401819004810282018101909252828152606093909290918301828280156107345780601f1061070957610100808354040283529160200191610734565b820191906000526020600020905b81548152906001019060200180831161071757829003601f168201915b505050505090505b90565b6060600280548060200260200160405190810160405280929190818152602001828054801561073457602002820191906000526020600020905b815481526020019060010190808311610779575050505050905090565b600a5460ff1690565b80516107b2906002906020840190610a41565b5050565b60065490565b60095490565b600a805482919060ff191660018360028111156107db57fe5b021790555050565b60035490565b50565b600655565b600855565b60045490565b606060058054806020026020016040519081016040528092919081815260200182805480156107345760200282019190600052602060002090815481526020019060010190808311610779575050505050905090565b60018054604080516020601f600260001961010087891615020190951694909404938401819004810282018101909252828152606093909290918301828280156107345780601f1061070957610100808354040283529160200191610734565b600355565b80516107b2906001906020840190610a8c565b60075490565b60085490565b600955565b80516107b2906005906020840190610a41565b80516107b2906000906020840190610a8c565b6000816001600160a01b03811663f3f4ef7961091b6107bc565b610923610796565b61092b6107e3565b6109336107f6565b61093b6107fc565b6109436107b6565b61094b6108ca565b6109536108d0565b6040518963ffffffff1660e01b81526004018089815260200188600281111561097857fe5b60ff16815260200187815260200186815260200180602001858152602001848152602001838152602001828103825286818151815260200191508051906020019060200280838360005b838110156109da5781810151838201526020016109c2565b50505050905001995050505050505050505060206040518083038186803b158015610a0457600080fd5b505afa158015610a18573d6000803e3d6000fd5b505050506040513d6020811015610a2e57600080fd5b50519392505050565b600455565b600755565b828054828255906000526020600020908101928215610a7c579160200282015b82811115610a7c578251825591602001919060010190610a61565b50610a88929150610af9565b5090565b828054600181600116156101000203166002900490600052602060002090601f016020900481019282601f10610acd57805160ff1916838001178555610a7c565b82800160010185558215610a7c5791820182811115610a7c578251825591602001919060010190610a61565b61073c91905b80821115610a885760008155600101610aff56fea265627a7a72315820d32ccf2e13140f4ad00dfae2f0f02ff40b2950ee1cbc338bb89d7f7ad32c846c64736f6c63430005110032",
  "linkReferences": {},
  "deployedLinkReferences": {}
}