{
  "_format": "hh-sol-artifact-1",
  "contractName": "CallExecutableProposal",
  "sourceName": "contracts/proposal/base/CallExecutableProposal.sol",
  "abi": [
    {
      "constant": true,
      "inputs": [],
      "name": "description",
      "outputs": [
        {
          "internalType": "string",
          "name": "",
          "type": "string"
        }
      ],
      "payable": false,
      "stateMutability": "view",
      "type": "function"
    },
    {
      "constant": true,
      "inputs": [],
      "name": "executable",
      "outputs": [
        {
          "internalType": "enum Proposal.ExecType",
          "name": "",
          "type": "uint8"
        }
      ],
      "payable": false,
      "stateMutability": "view",
      "type": "function"
    },
    {
      "constant": false,
      "inputs": [
        {
          "internalType": "uint256",
          "name": "",
          "type": "uint256"
        }
      ],
      "name": "execute_call",
      "outputs": [],
      "payable": false,
      "stateMutability": "nonpayable",
      "type": "function"
    },
    {
      "constant": false,
      "inputs": [
        {
          "internalType": "address",
          "name": "",
          "type": "address"
        },
        {
          "internalType": "uint256",
          "name": "",
          "type": "uint256"
        }
      ],
      "name": "execute_delegatecall",
      "outputs": [],
      "payable": false,
      "stateMutability": "nonpayable",
      "type": "function"
    },
    {
      "constant": true,
      "inputs": [],
      "name": "minAgreement",
      "outputs": [
        {
          "internalType": "uint256",
          "name": "",
          "type": "uint256"
        }
      ],
      "payable": false,
      "stateMutability": "view",
      "type": "function"
    },
    {
      "constant": true,
      "inputs": [],
      "name": "minVotes",
      "outputs": [
        {
          "internalType": "uint256",
          "name": "",
          "type": "uint256"
        }
      ],
      "payable": false,
      "stateMutability": "view",
      "type": "function"
    },
    {
      "constant": true,
      "inputs": [],
      "name": "name",
      "outputs": [
        {
          "internalType": "string",
          "name": "",
          "type": "string"
        }
      ],
      "payable": false,
      "stateMutability": "view",
      "type": "function"
    },
    {
      "constant": true,
      "inputs": [],
      "name": "opinionScales",
      "outputs": [
        {
          "internalType": "uint256[]",
          "name": "",
          "type": "uint256[]"
        }
      ],
      "payable": false,
      "stateMutability": "view",
      "type": "function"
    },
    {
      "constant": true,
      "inputs": [],
      "name": "options",
      "outputs": [
        {
          "internalType": "bytes32[]",
          "name": "",
          "type": "bytes32[]"
        }
      ],
      "payable": false,
      "stateMutability": "view",
      "type": "function"
    },
    {
      "constant": true,
      "inputs": [],
      "name": "pType",
      "outputs": [
        {
          "internalType": "uint256",
          "name": "",
          "type": "uint256"
        }
      ],
      "payable": false,
      "stateMutability": "view",
      "type": "function"
    },
    {
      "constant": true,
      "inputs": [
        {
          "internalType": "address",
          "name": "verifier",
          "type": "address"
        }
      ],
      "name": "verifyProposalParams",
      "outputs": [
        {
          "internalType": "bool",
          "name": "",
          "type": "bool"
        }
      ],
      "payable": false,
      "stateMutability": "view",
      "type": "function"
    },
    {
      "constant": true,
      "inputs": [],
      "name": "votingMaxEndTime",
      "outputs": [
        {
          "internalType": "uint256",
          "name": "",
          "type": "uint256"
        }
      ],
      "payable": false,
      "stateMutability": "view",
      "type": "function"
    },
    {
      "constant": true,
      "inputs": [],
      "name": "votingMinEndTime",
      "outputs": [
        {
          "internalType": "uint256",
          "name": "",
          "type": "uint256"
        }
      ],
      "payable": false,
      "stateMutability": "view",
      "type": "function"
    },
    {
      "constant": true,
      "inputs": [],
      "name": "votingStartTime",
      "outputs": [
        {
          "internalType": "uint256",
          "name": "",
          "type": "uint256"
        }
      ],
      "payable": false,
      "stateMutability": "view",
      "type": "function"
    }
  ],
  "bytecode": "0x608060405234801561001057600080fd5b506106a2806100206000396000f3fe608060405234801561001057600080fd5b50600436106100ea5760003560e01c80636eb067a01161008c5780639b3a8a07116100665780639b3a8a0714610251578063a61e393a14610259578063aa3daba914610261578063cb00e7d31461028d576100ea565b80636eb067a0146102395780636f24f8a1146102415780637284e41614610249576100ea565b80632019a608116100c85780632019a608146101f0578063216b91161461020a5780633cc228fd1461021257806363012d011461021a576100ea565b806306fdde03146100ef5780631069143a1461016c57806316131a18146101c4575b600080fd5b6100f76102c7565b6040805160208082528351818301528351919283929083019185019080838360005b83811015610131578181015183820152602001610119565b50505050905090810190601f16801561015e5780820380516001836020036101000a031916815260200191505b509250505060405180910390f35b61017461035d565b60408051602080825283518183015283519192839290830191858101910280838360005b838110156101b0578181015183820152602001610198565b505050509050019250505060405180910390f35b6101cc6103b4565b604051808260028111156101dc57fe5b60ff16815260200191505060405180910390f35b6101f86103b9565b60408051918252519081900360200190f35b6101f86103c1565b6101f86103c6565b6102376004803603602081101561023057600080fd5b50356103cc565b005b6101f861040e565b610174610414565b6100f761046a565b6101f86104ca565b6101f86104dd565b6102376004803603604081101561027757600080fd5b506001600160a01b0381351690602001356104ea565b6102b3600480360360208110156102a357600080fd5b50356001600160a01b0316610537565b604080519115158252519081900360200190f35b60008054604080516020601f60026000196101006001881615020190951694909404938401819004810282018101909252828152606093909290918301828280156103535780601f1061032857610100808354040283529160200191610353565b820191906000526020600020905b81548152906001019060200180831161033657829003601f168201915b5050505050905090565b6060600280548060200260200160405190810160405280929190818152602001828054801561035357602002820191906000526020600020905b815481526020019060010190808311610397575050505050905090565b600190565b600654420190565b600290565b60035490565b6040805162461bcd60e51b815260206004820152601260248201527136bab9ba1031329037bb32b93934b23232b760711b604482015290519081900360640190fd5b60045490565b606060058054806020026020016040519081016040528092919081815260200182805480156103535760200282019190600052602060002090815481526020019060010190808311610397575050505050905090565b60018054604080516020601f600260001961010087891615020190951694909404938401819004810282018101909252828152606093909290918301828280156103535780601f1061032857610100808354040283529160200191610353565b60006007546104d76103b9565b01905090565b60006008546104d76103b9565b6040805162461bcd60e51b815260206004820152601b60248201527f6e6f742064656c656761746563616c6c2d65786563757461626c650000000000604482015290519081900360640190fd5b6000816001600160a01b03811663f3f4ef796105516103c1565b6105596103b4565b6105616103c6565b61056961040e565b610571610414565b6105796103b9565b6105816104ca565b6105896104dd565b6040518963ffffffff1660e01b8152600401808981526020018860028111156105ae57fe5b60ff16815260200187815260200186815260200180602001858152602001848152602001838152602001828103825286818151815260200191508051906020019060200280838360005b838110156106105781810151838201526020016105f8565b50505050905001995050505050505050505060206040518083038186803b15801561063a57600080fd5b505afa15801561064e573d6000803e3d6000fd5b505050506040513d602081101561066457600080fd5b5051939250505056fea265627a7a72315820f5feb920c5e134840954244709d83cd08be534a7bd76a7ad803cb04a49d7fb4e64736f6c63430005110032",
  "linkReferences": {},
  "deployedLinkReferences": {}
}