{
  "_format": "hh-sol-artifact-1",
  "contractName": "SoftwareUpgradeProposal",
  "sourceName": "contracts/proposal/SoftwareUpgradeProposal.sol",
  "abi": [
    {
      "inputs": [
        {
          "internalType": "string",
          "name": "__name",
          "type": "string"
        },
        {
          "internalType": "string",
          "name": "__description",
          "type": "string"
        },
        {
          "internalType": "uint256",
          "name": "__minVotes",
          "type": "uint256"
        },
        {
          "internalType": "uint256",
          "name": "__minAgreement",
          "type": "uint256"
        },
        {
          "internalType": "uint256",
          "name": "__start",
          "type": "uint256"
        },
        {
          "internalType": "uint256",
          "name": "__minEnd",
          "type": "uint256"
        },
        {
          "internalType": "uint256",
          "name": "__maxEnd",
          "type": "uint256"
        },
        {
          "internalType": "address",
          "name": "__upgradeableContract",
          "type": "address"
        },
        {
          "internalType": "address",
          "name": "__newImplementation",
          "type": "address"
        },
        {
          "internalType": "address",
          "name": "verifier",
          "type": "address"
        }
      ],
      "payable": false,
      "stateMutability": "nonpayable",
      "type": "constructor"
    },
    {
      "anonymous": false,
      "inputs": [
        {
          "indexed": true,
          "internalType": "address",
          "name": "previousOwner",
          "type": "address"
        },
        {
          "indexed": true,
          "internalType": "address",
          "name": "newOwner",
          "type": "address"
        }
      ],
      "name": "OwnershipTransferred",
      "type": "event"
    },
    {
      "anonymous": false,
      "inputs": [
        {
          "indexed": false,
          "internalType": "address",
          "name": "newImplementation",
          "type": "address"
        }
      ],
      "name": "SoftwareUpgradeIsDone",
      "type": "event"
    },
    {
      "constant": false,
      "inputs": [
        {
          "internalType": "uint256",
          "name": "myID",
          "type": "uint256"
        },
        {
          "internalType": "address",
          "name": "govAddress",
          "type": "address"
        }
      ],
      "name": "cancel",
      "outputs": [],
      "payable": false,
      "stateMutability": "nonpayable",
      "type": "function"
    },
    {
      "constant": true,
      "inputs": [],
      "name": "description",
      "outputs": [
        {
          "internalType": "string",
          "name": "",
          "type": "string"
        }
      ],
      "payable": false,
      "stateMutability": "view",
      "type": "function"
    },
    {
      "constant": true,
      "inputs": [],
      "name": "executable",
      "outputs": [
        {
          "internalType": "enum Proposal.ExecType",
          "name": "",
          "type": "uint8"
        }
      ],
      "payable": false,
      "stateMutability": "view",
      "type": "function"
    },
    {
      "constant": false,
      "inputs": [
        {
          "internalType": "uint256",
          "name": "",
          "type": "uint256"
        }
      ],
      "name": "execute_call",
      "outputs": [],
      "payable": false,
      "stateMutability": "nonpayable",
      "type": "function"
    },
    {
      "constant": false,
      "inputs": [
        {
          "internalType": "address",
          "name": "selfAddr",
          "type": "address"
        },
        {
          "internalType": "uint256",
          "name": "",
          "type": "uint256"
        }
      ],
      "name": "execute_delegatecall",
      "outputs": [],
      "payable": false,
      "stateMutability": "nonpayable",
      "type": "function"
    },
    {
      "constant": true,
      "inputs": [],
      "name": "isOwner",
      "outputs": [
        {
          "internalType": "bool",
          "name": "",
          "type": "bool"
        }
      ],
      "payable": false,
      "stateMutability": "view",
      "type": "function"
    },
    {
      "constant": true,
      "inputs": [],
      "name": "minAgreement",
      "outputs": [
        {
          "internalType": "uint256",
          "name": "",
          "type": "uint256"
        }
      ],
      "payable": false,
      "stateMutability": "view",
      "type": "function"
    },
    {
      "constant": true,
      "inputs": [],
      "name": "minVotes",
      "outputs": [
        {
          "internalType": "uint256",
          "name": "",
          "type": "uint256"
        }
      ],
      "payable": false,
      "stateMutability": "view",
      "type": "function"
    },
    {
      "constant": true,
      "inputs": [],
      "name": "name",
      "outputs": [
        {
          "internalType": "string",
          "name": "",
          "type": "string"
        }
      ],
      "payable": false,
      "stateMutability": "view",
      "type": "function"
    },
    {
      "constant": true,
      "inputs": [],
      "name": "newImplementation",
      "outputs": [
        {
          "internalType": "address",
          "name": "",
          "type": "address"
        }
      ],
      "payable": false,
      "stateMutability": "view",
      "type": "function"
    },
    {
      "constant": true,
      "inputs": [],
      "name": "opinionScales",
      "outputs": [
        {
          "internalType": "uint256[]",
          "name": "",
          "type": "uint256[]"
        }
      ],
      "payable": false,
      "stateMutability": "view",
      "type": "function"
    },
    {
      "constant": true,
      "inputs": [],
      "name": "options",
      "outputs": [
        {
          "internalType": "bytes32[]",
          "name": "",
          "type": "bytes32[]"
        }
      ],
      "payable": false,
      "stateMutability": "view",
      "type": "function"
    },
    {
      "constant": true,
      "inputs": [],
      "name": "owner",
      "outputs": [
        {
          "internalType": "address",
          "name": "",
          "type": "address"
        }
      ],
      "payable": false,
      "stateMutability": "view",
      "type": "function"
    },
    {
      "constant": true,
      "inputs": [],
      "name": "pType",
      "outputs": [
        {
          "internalType": "uint256",
          "name": "",
          "type": "uint256"
        }
      ],
      "payable": false,
      "stateMutability": "view",
      "type": "function"
    },
    {
      "constant": false,
      "inputs": [],
      "name": "renounceOwnership",
      "outputs": [],
      "payable": false,
      "stateMutability": "nonpayable",
      "type": "function"
    },
    {
      "constant": false,
      "inputs": [
        {
          "internalType": "address",
          "name": "newOwner",
          "type": "address"
        }
      ],
      "name": "transferOwnership",
      "outputs": [],
      "payable": false,
      "stateMutability": "nonpayable",
      "type": "function"
    },
    {
      "constant": true,
      "inputs": [],
      "name": "upgradeableContract",
      "outputs": [
        {
          "internalType": "address",
          "name": "",
          "type": "address"
        }
      ],
      "payable": false,
      "stateMutability": "view",
      "type": "function"
    },
    {
      "constant": true,
      "inputs": [
        {
          "internalType": "address",
          "name": "verifier",
          "type": "address"
        }
      ],
      "name": "verifyProposalParams",
      "outputs": [
        {
          "internalType": "bool",
          "name": "",
          "type": "bool"
        }
      ],
      "payable": false,
      "stateMutability": "view",
      "type": "function"
    },
    {
      "constant": true,
      "inputs": [],
      "name": "votingMaxEndTime",
      "outputs": [
        {
          "internalType": "uint256",
          "name": "",
          "type": "uint256"
        }
      ],
      "payable": false,
      "stateMutability": "view",
      "type": "function"
    },
    {
      "constant": true,
      "inputs": [],
      "name": "votingMinEndTime",
      "outputs": [
        {
          "internalType": "uint256",
          "name": "",
          "type": "uint256"
        }
      ],
      "payable": false,
      "stateMutability": "view",
      "type": "function"
    },
    {
      "constant": true,
      "inputs": [],
      "name": "votingStartTime",
      "outputs": [
        {
          "internalType": "uint256",
          "name": "",
          "type": "uint256"
        }
      ],
      "payable": false,
      "stateMutability": "view",
      "type": "function"
    }
  ],
  "bytecode": "0x60806040523480156200001157600080fd5b50604051620014d9380380620014d983398181016040526101408110156200003857600080fd5b81019080805160405193929190846401000000008211156200005957600080fd5b9083019060208201858111156200006f57600080fd5b82516401000000008111828201881017156200008a57600080fd5b82525081516020918201929091019080838360005b83811015620000b95781810151838201526020016200009f565b50505050905090810190601f168015620000e75780820380516001836020036101000a031916815260200191505b50604052602001805160405193929190846401000000008211156200010b57600080fd5b9083019060208201858111156200012157600080fd5b82516401000000008111828201881017156200013c57600080fd5b82525081516020918201929091019080838360005b838110156200016b57818101518382015260200162000151565b50505050905090810190601f168015620001995780820380516001836020036101000a031916815260200191505b506040908152602082810151918301516060840151608085015160a086015160c087015160e088015161010090980151969950939750919590949193909190620001ee90339062000b8d6200035a821b17901c565b8951620002039060009060208d0190620006a8565b508851620002199060019060208c0190620006a8565b50600280546001818101835560008381526279657360e81b7f405787fa12a823e0f2b7631cc41b3ba8828b3321ca811111fa75cd3aa3bb5ace9093019290925560038b815560048b81556040805160a081018252948552602085019390935291830193909352606082019290925260808101919091526200029e90600590816200072d565b50600686905560078590556008849055606f80546001600160a01b038086166001600160a01b0319928316179092556070805485841692169190911790558116156200034a57620002f8816001600160e01b036200045d16565b6200034a576040805162461bcd60e51b815260206004820152601360248201527f6661696c656420766572696669636174696f6e00000000000000000000000000604482015290519081900360640190fd5b505050505050505050506200078d565b600954610100900460ff16806200037f57506200037f6001600160e01b03620005f116565b806200038e575060095460ff16155b620003cb5760405162461bcd60e51b815260040180806020018281038252602e815260200180620014ab602e913960400191505060405180910390fd5b600954610100900460ff16158015620003f7576009805460ff1961ff0019909116610100171660011790555b603c80546001600160a01b0319166001600160a01b0384811691909117918290556040519116906000907f8be0079c531659141344cd1fd0a4f28419497f9722a3daafe3b4186f6b6457e0908290a3801562000459576009805461ff00191690555b5050565b6000816001600160a01b03811663f3f4ef79620004826001600160e01b03620005f816565b620004956001600160e01b03620005fd16565b620004a86001600160e01b036200060216565b620004bb6001600160e01b036200060816565b620004ce6001600160e01b036200060e16565b620004e16001600160e01b036200066816565b620004f46001600160e01b036200067016565b620005076001600160e01b036200068f16565b6040518963ffffffff1660e01b8152600401808981526020018860028111156200052d57fe5b60ff16815260200187815260200186815260200180602001858152602001848152602001838152602001828103825286818151815260200191508051906020019060200280838360005b838110156200059157818101518382015260200162000577565b50505050905001995050505050505050505060206040518083038186803b158015620005bc57600080fd5b505afa158015620005d1573d6000803e3d6000fd5b505050506040513d6020811015620005e857600080fd5b50519392505050565b303b155b90565b600390565b600290565b60035490565b60045490565b606060058054806020026020016040519081016040528092919081815260200182805480156200065e57602002820191906000526020600020905b81548152602001906001019080831162000649575b5050505050905090565b600654420190565b600754600090620006896001600160e01b036200066816565b01905090565b600854600090620006896001600160e01b036200066816565b828054600181600116156101000203166002900490600052602060002090601f016020900481019282601f10620006eb57805160ff19168380011785556200071b565b828001600101855582156200071b579182015b828111156200071b578251825591602001919060010190620006fe565b506200072992915062000770565b5090565b8280548282559060005260206000209081019282156200071b579160200282015b828111156200071b578251829060ff169055916020019190600101906200074e565b620005f591905b8082111562000729576000815560010162000777565b610d0e806200079d6000396000f3fe608060405234801561001057600080fd5b50600436106101375760003560e01c80636f24f8a1116100b85780638f32d59b1161007c5780638f32d59b146103065780639b3a8a0714610322578063a61e393a1461032a578063aa3daba914610332578063cb00e7d31461035e578063f2fde38b1461038457610137565b80636f24f8a1146102de578063715018a6146102e65780637284e416146102ee5780638b677b03146102f65780638da5cb5b146102fe57610137565b80632d003029116100ff5780632d0030291461025f5780633cc228fd1461028357806357d682c41461028b57806363012d01146102b95780636eb067a0146102d657610137565b806306fdde031461013c5780631069143a146101b957806316131a18146102115780632019a6081461023d578063216b911614610257575b600080fd5b6101446103aa565b6040805160208082528351818301528351919283929083019185019080838360005b8381101561017e578181015183820152602001610166565b50505050905090810190601f1680156101ab5780820380516001836020036101000a031916815260200191505b509250505060405180910390f35b6101c1610440565b60408051602080825283518183015283519192839290830191858101910280838360005b838110156101fd5781810151838201526020016101e5565b505050509050019250505060405180910390f35b610219610497565b6040518082600281111561022957fe5b60ff16815260200191505060405180910390f35b61024561049c565b60408051918252519081900360200190f35b6102456104a4565b6102676104a9565b604080516001600160a01b039092168252519081900360200190f35b6102456104b8565b6102b7600480360360408110156102a157600080fd5b50803590602001356001600160a01b03166104be565b005b6102b7600480360360208110156102cf57600080fd5b503561057f565b6102456105c5565b6101c16105cb565b6102b7610621565b6101446106c4565b610267610724565b610267610733565b61030e610742565b604080519115158252519081900360200190f35b610245610753565b610245610766565b6102b76004803603604081101561034857600080fd5b506001600160a01b038135169060200135610773565b61030e6004803603602081101561037457600080fd5b50356001600160a01b0316610959565b6102b76004803603602081101561039a57600080fd5b50356001600160a01b0316610a8f565b60008054604080516020601f60026000196101006001881615020190951694909404938401819004810282018101909252828152606093909290918301828280156104365780601f1061040b57610100808354040283529160200191610436565b820191906000526020600020905b81548152906001019060200180831161041957829003601f168201915b5050505050905090565b6060600280548060200260200160405190810160405280929190818152602001828054801561043657602002820191906000526020600020905b81548152602001906001019080831161047a575050505050905090565b600290565b600654420190565b600390565b606f546001600160a01b031681565b60035490565b6104c6610742565b610517576040805162461bcd60e51b815260206004820181905260248201527f4f776e61626c653a2063616c6c6572206973206e6f7420746865206f776e6572604482015290519081900360640190fd5b6000819050806001600160a01b031663e0a8f6f5846040518263ffffffff1660e01b815260040180828152602001915050600060405180830381600087803b15801561056257600080fd5b505af1158015610576573d6000803e3d6000fd5b50505050505050565b6040805162461bcd60e51b81526020600482015260136024820152726e6f742063616c6c2d65786563757461626c6560681b604482015290519081900360640190fd5b50565b60045490565b60606005805480602002602001604051908101604052809291908181526020018280548015610436576020028201919060005260206000209081548152602001906001019080831161047a575050505050905090565b610629610742565b61067a576040805162461bcd60e51b815260206004820181905260248201527f4f776e61626c653a2063616c6c6572206973206e6f7420746865206f776e6572604482015290519081900360640190fd5b603c546040516000916001600160a01b0316907f8be0079c531659141344cd1fd0a4f28419497f9722a3daafe3b4186f6b6457e0908390a3603c80546001600160a01b0319169055565b60018054604080516020601f600260001961010087891615020190951694909404938401819004810282018101909252828152606093909290918301828280156104365780601f1061040b57610100808354040283529160200191610436565b6070546001600160a01b031681565b603c546001600160a01b031690565b603c546001600160a01b0316331490565b600060075461076061049c565b01905090565b600060085461076061049c565b6000829050806001600160a01b0316632d0030296040518163ffffffff1660e01b815260040160206040518083038186803b1580156107b157600080fd5b505afa1580156107c5573d6000803e3d6000fd5b505050506040513d60208110156107db57600080fd5b505160408051638b677b0360e01b815290516001600160a01b0392831692633659cfe69290851691638b677b0391600480820192602092909190829003018186803b15801561082957600080fd5b505afa15801561083d573d6000803e3d6000fd5b505050506040513d602081101561085357600080fd5b5051604080516001600160e01b031960e085901b1681526001600160a01b03909216600483015251602480830192600092919082900301818387803b15801561089b57600080fd5b505af11580156108af573d6000803e3d6000fd5b505050507f66fbd43eae60bde06a8dc099cd06b95a0960ca87b081a8b80524e04c99fb439b816001600160a01b0316638b677b036040518163ffffffff1660e01b815260040160206040518083038186803b15801561090d57600080fd5b505afa158015610921573d6000803e3d6000fd5b505050506040513d602081101561093757600080fd5b5051604080516001600160a01b039092168252519081900360200190a1505050565b6000816001600160a01b03811663f3f4ef796109736104a4565b61097b610497565b6109836104b8565b61098b6105c5565b6109936105cb565b61099b61049c565b6109a3610753565b6109ab610766565b6040518963ffffffff1660e01b8152600401808981526020018860028111156109d057fe5b60ff16815260200187815260200186815260200180602001858152602001848152602001838152602001828103825286818151815260200191508051906020019060200280838360005b83811015610a32578181015183820152602001610a1a565b50505050905001995050505050505050505060206040518083038186803b158015610a5c57600080fd5b505afa158015610a70573d6000803e3d6000fd5b505050506040513d6020811015610a8657600080fd5b50519392505050565b610a97610742565b610ae8576040805162461bcd60e51b815260206004820181905260248201527f4f776e61626c653a2063616c6c6572206973206e6f7420746865206f776e6572604482015290519081900360640190fd5b6105c2816001600160a01b038116610b315760405162461bcd60e51b8152600401808060200182810382526026815260200180610c866026913960400191505060405180910390fd5b603c546040516001600160a01b038084169216907f8be0079c531659141344cd1fd0a4f28419497f9722a3daafe3b4186f6b6457e090600090a3603c80546001600160a01b0319166001600160a01b0392909216919091179055565b600954610100900460ff1680610ba65750610ba6610c7f565b80610bb4575060095460ff16155b610bef5760405162461bcd60e51b815260040180806020018281038252602e815260200180610cac602e913960400191505060405180910390fd5b600954610100900460ff16158015610c1a576009805460ff1961ff0019909116610100171660011790555b603c80546001600160a01b0319166001600160a01b0384811691909117918290556040519116906000907f8be0079c531659141344cd1fd0a4f28419497f9722a3daafe3b4186f6b6457e0908290a38015610c7b576009805461ff00191690555b5050565b303b159056fe4f776e61626c653a206e6577206f776e657220697320746865207a65726f2061646472657373436f6e747261637420696e7374616e63652068617320616c7265616479206265656e20696e697469616c697a6564a265627a7a7231582097d6542887acc3e92cc35fc842cb0409b2c26d3e5a5e34850f03934ac3fdeac464736f6c63430005110032436f6e747261637420696e7374616e63652068617320616c7265616479206265656e20696e697469616c697a6564",
  "linkReferences": {},
  "deployedLinkReferences": {}
}