{
  "_format": "hh-sol-artifact-1",
  "contractName": "UnitTestGovernable",
  "sourceName": "contracts/test/UnitTestGovernable.sol",
  "abi": [
    {
      "constant": true,
      "inputs": [
        {
          "internalType": "address",
          "name": "addr",
          "type": "address"
        }
      ],
      "name": "getReceivedWeight",
      "outputs": [
        {
          "internalType": "uint256",
          "name": "",
          "type": "uint256"
        }
      ],
      "payable": false,
      "stateMutability": "view",
      "type": "function"
    },
    {
      "constant": true,
      "inputs": [],
      "name": "getTotalWeight",
      "outputs": [
        {
          "internalType": "uint256",
          "name": "",
          "type": "uint256"
        }
      ],
      "payable": false,
      "stateMutability": "view",
      "type": "function"
    },
    {
      "constant": true,
      "inputs": [
        {
          "internalType": "address",
          "name": "from",
          "type": "address"
        },
        {
          "internalType": "address",
          "name": "to",
          "type": "address"
        }
      ],
      "name": "getWeight",
      "outputs": [
        {
          "internalType": "uint256",
          "name": "",
          "type": "uint256"
        }
      ],
      "payable": false,
      "stateMutability": "view",
      "type": "function"
    },
    {
      "constant": false,
      "inputs": [
        {
          "internalType": "address",
          "name": "to",
          "type": "address"
        },
        {
          "internalType": "uint256",
          "name": "amount",
          "type": "uint256"
        }
      ],
      "name": "stake",
      "outputs": [],
      "payable": false,
      "stateMutability": "nonpayable",
      "type": "function"
    },
    {
      "constant": true,
      "inputs": [],
      "name": "totalStake",
      "outputs": [
        {
          "internalType": "uint256",
          "name": "",
          "type": "uint256"
        }
      ],
      "payable": false,
      "stateMutability": "view",
      "type": "function"
    },
    {
      "constant": false,
      "inputs": [
        {
          "internalType": "address",
          "name": "to",
          "type": "address"
        },
        {
          "internalType": "uint256",
          "name": "amount",
          "type": "uint256"
        }
      ],
      "name": "unstake",
      "outputs": [],
      "payable": false,
      "stateMutability": "nonpayable",
      "type": "function"
    }
  ],
  "bytecode": "0x608060405234801561001057600080fd5b506102ae806100206000396000f3fe608060405234801561001057600080fd5b50600436106100625760003560e01c806306aba0e11461006757806368339357146100815780638b0e9f3f146100a7578063a4817321146100af578063adc9772e146100dd578063c2a672e01461010b575b600080fd5b61006f610137565b60408051918252519081900360200190f35b61006f6004803603602081101561009757600080fd5b50356001600160a01b031661013d565b61006f610158565b61006f600480360360408110156100c557600080fd5b506001600160a01b038135811691602001351661015e565b610109600480360360408110156100f357600080fd5b506001600160a01b038135169060200135610187565b005b6101096004803603604081101561012157600080fd5b506001600160a01b0381351690602001356101ca565b60025490565b6001600160a01b031660009081526001602052604090205490565b60025481565b6001600160a01b0391821660009081526020818152604080832093909416825291909152205490565b336000908152602081815260408083206001600160a01b039590951683529381528382208054840190556001905291909120805482019055600280549091019055565b336000908152602081815260408083206001600160a01b0386168452909152902054811115610233576040805162461bcd60e51b815260206004820152601060248201526f6e6f7420656e6f756768207374616b6560801b604482015290519081900360640190fd5b336000908152602081815260408083206001600160a01b03959095168352938152838220805484900390556001905291909120805482900390556002805491909103905556fea265627a7a72315820e3eec583e40cd39e055058c329b0b64138d0e327cd9ad7c1d8907dea908a5c6764736f6c63430005110032",
  "linkReferences": {},
  "deployedLinkReferences": {}
}