{
  "_format": "hh-sol-artifact-1",
  "contractName": "AlteredPlainTextProposal",
  "sourceName": "contracts/proposal/test/AlteredPlainTextProposal.sol",
  "abi": [
    {
      "inputs": [
        {
          "internalType": "string",
          "name": "v1",
          "type": "string"
        },
        {
          "internalType": "string",
          "name": "v2",
          "type": "string"
        },
        {
          "internalType": "bytes32[]",
          "name": "v3",
          "type": "bytes32[]"
        },
        {
          "internalType": "uint256",
          "name": "v4",
          "type": "uint256"
        },
        {
          "internalType": "uint256",
          "name": "v5",
          "type": "uint256"
        },
        {
          "internalType": "uint256",
          "name": "v6",
          "type": "uint256"
        },
        {
          "internalType": "uint256",
          "name": "v7",
          "type": "uint256"
        },
        {
          "internalType": "uint256",
          "name": "v8",
          "type": "uint256"
        },
        {
          "internalType": "address",
          "name": "v9",
          "type": "address"
        }
      ],
      "payable": false,
      "stateMutability": "nonpayable",
      "type": "constructor"
    },
    {
      "anonymous": false,
      "inputs": [
        {
          "indexed": true,
          "internalType": "address",
          "name": "previousOwner",
          "type": "address"
        },
        {
          "indexed": true,
          "internalType": "address",
          "name": "newOwner",
          "type": "address"
        }
      ],
      "name": "OwnershipTransferred",
      "type": "event"
    },
    {
      "constant": false,
      "inputs": [
        {
          "internalType": "uint256",
          "name": "myID",
          "type": "uint256"
        },
        {
          "internalType": "address",
          "name": "govAddress",
          "type": "address"
        }
      ],
      "name": "cancel",
      "outputs": [],
      "payable": false,
      "stateMutability": "nonpayable",
      "type": "function"
    },
    {
      "constant": true,
      "inputs": [],
      "name": "description",
      "outputs": [
        {
          "internalType": "string",
          "name": "",
          "type": "string"
        }
      ],
      "payable": false,
      "stateMutability": "view",
      "type": "function"
    },
    {
      "constant": true,
      "inputs": [],
      "name": "executable",
      "outputs": [
        {
          "internalType": "enum Proposal.ExecType",
          "name": "",
          "type": "uint8"
        }
      ],
      "payable": false,
      "stateMutability": "view",
      "type": "function"
    },
    {
      "constant": false,
      "inputs": [
        {
          "internalType": "uint256",
          "name": "",
          "type": "uint256"
        }
      ],
      "name": "execute_call",
      "outputs": [],
      "payable": false,
      "stateMutability": "nonpayable",
      "type": "function"
    },
    {
      "constant": false,
      "inputs": [
        {
          "internalType": "address",
          "name": "",
          "type": "address"
        },
        {
          "internalType": "uint256",
          "name": "",
          "type": "uint256"
        }
      ],
      "name": "execute_delegatecall",
      "outputs": [],
      "payable": false,
      "stateMutability": "nonpayable",
      "type": "function"
    },
    {
      "constant": true,
      "inputs": [],
      "name": "isOwner",
      "outputs": [
        {
          "internalType": "bool",
          "name": "",
          "type": "bool"
        }
      ],
      "payable": false,
      "stateMutability": "view",
      "type": "function"
    },
    {
      "constant": true,
      "inputs": [],
      "name": "minAgreement",
      "outputs": [
        {
          "internalType": "uint256",
          "name": "",
          "type": "uint256"
        }
      ],
      "payable": false,
      "stateMutability": "view",
      "type": "function"
    },
    {
      "constant": true,
      "inputs": [],
      "name": "minVotes",
      "outputs": [
        {
          "internalType": "uint256",
          "name": "",
          "type": "uint256"
        }
      ],
      "payable": false,
      "stateMutability": "view",
      "type": "function"
    },
    {
      "constant": true,
      "inputs": [],
      "name": "name",
      "outputs": [
        {
          "internalType": "string",
          "name": "",
          "type": "string"
        }
      ],
      "payable": false,
      "stateMutability": "view",
      "type": "function"
    },
    {
      "constant": true,
      "inputs": [],
      "name": "opinionScales",
      "outputs": [
        {
          "internalType": "uint256[]",
          "name": "",
          "type": "uint256[]"
        }
      ],
      "payable": false,
      "stateMutability": "view",
      "type": "function"
    },
    {
      "constant": true,
      "inputs": [],
      "name": "options",
      "outputs": [
        {
          "internalType": "bytes32[]",
          "name": "",
          "type": "bytes32[]"
        }
      ],
      "payable": false,
      "stateMutability": "view",
      "type": "function"
    },
    {
      "constant": true,
      "inputs": [],
      "name": "owner",
      "outputs": [
        {
          "internalType": "address",
          "name": "",
          "type": "address"
        }
      ],
      "payable": false,
      "stateMutability": "view",
      "type": "function"
    },
    {
      "constant": true,
      "inputs": [],
      "name": "pType",
      "outputs": [
        {
          "internalType": "uint256",
          "name": "",
          "type": "uint256"
        }
      ],
      "payable": false,
      "stateMutability": "view",
      "type": "function"
    },
    {
      "constant": false,
      "inputs": [],
      "name": "renounceOwnership",
      "outputs": [],
      "payable": false,
      "stateMutability": "nonpayable",
      "type": "function"
    },
    {
      "constant": false,
      "inputs": [
        {
          "internalType": "address",
          "name": "newOwner",
          "type": "address"
        }
      ],
      "name": "transferOwnership",
      "outputs": [],
      "payable": false,
      "stateMutability": "nonpayable",
      "type": "function"
    },
    {
      "constant": true,
      "inputs": [
        {
          "internalType": "address",
          "name": "verifier",
          "type": "address"
        }
      ],
      "name": "verifyProposalParams",
      "outputs": [
        {
          "internalType": "bool",
          "name": "",
          "type": "bool"
        }
      ],
      "payable": false,
      "stateMutability": "view",
      "type": "function"
    },
    {
      "constant": true,
      "inputs": [],
      "name": "votingMaxEndTime",
      "outputs": [
        {
          "internalType": "uint256",
          "name": "",
          "type": "uint256"
        }
      ],
      "payable": false,
      "stateMutability": "view",
      "type": "function"
    },
    {
      "constant": true,
      "inputs": [],
      "name": "votingMinEndTime",
      "outputs": [
        {
          "internalType": "uint256",
          "name": "",
          "type": "uint256"
        }
      ],
      "payable": false,
      "stateMutability": "view",
      "type": "function"
    },
    {
      "constant": true,
      "inputs": [],
      "name": "votingStartTime",
      "outputs": [
        {
          "internalType": "uint256",
          "name": "",
          "type": "uint256"
        }
      ],
      "payable": false,
      "stateMutability": "view",
      "type": "function"
    }
  ],
  "bytecode": "0x60806040523480156200001157600080fd5b506040516200133e3803806200133e83398181016040526101208110156200003857600080fd5b81019080805160405193929190846401000000008211156200005957600080fd5b9083019060208201858111156200006f57600080fd5b82516401000000008111828201881017156200008a57600080fd5b82525081516020918201929091019080838360005b83811015620000b95781810151838201526020016200009f565b50505050905090810190601f168015620000e75780820380516001836020036101000a031916815260200191505b50604052602001805160405193929190846401000000008211156200010b57600080fd5b9083019060208201858111156200012157600080fd5b82516401000000008111828201881017156200013c57600080fd5b82525081516020918201929091019080838360005b838110156200016b57818101518382015260200162000151565b50505050905090810190601f168015620001995780820380516001836020036101000a031916815260200191505b5060405260200180516040519392919084640100000000821115620001bd57600080fd5b908301906020820185811115620001d357600080fd5b8251866020820283011164010000000082111715620001f157600080fd5b82525081516020918201928201910280838360005b838110156200022057818101518382015260200162000206565b50505050919091016040908152602083810151918401516060850151608086015160a087015160c090970151949850919650949093509190899089908990899089908990899089908990620002809033906200096c620003a4821b17901c565b8851620002959060009060208c0190620006f2565b508751620002ab9060019060208b0190620006f2565b508651620002c19060029060208a019062000777565b50600386815560048681556040805160a081018252600081526001602082015260029181019190915260608101929092526080820152620003069060059081620007b4565b506006849055600783905560088290556001600160a01b038116156200038c576200033a816001600160e01b03620004a716565b6200038c576040805162461bcd60e51b815260206004820152601360248201527f6661696c656420766572696669636174696f6e00000000000000000000000000604482015290519081900360640190fd5b50505050505050505050505050505050505062000814565b600954610100900460ff1680620003c95750620003c96001600160e01b036200063b16565b80620003d8575060095460ff16155b620004155760405162461bcd60e51b815260040180806020018281038252602e81526020018062001310602e913960400191505060405180910390fd5b600954610100900460ff1615801562000441576009805460ff1961ff0019909116610100171660011790555b603c80546001600160a01b0319166001600160a01b0384811691909117918290556040519116906000907f8be0079c531659141344cd1fd0a4f28419497f9722a3daafe3b4186f6b6457e0908290a38015620004a3576009805461ff00191690555b5050565b6000816001600160a01b03811663f3f4ef79620004cc6001600160e01b036200064216565b620004df6001600160e01b036200064716565b620004f26001600160e01b036200064c16565b620005056001600160e01b036200065216565b620005186001600160e01b036200065816565b6200052b6001600160e01b03620006b216565b6200053e6001600160e01b03620006ba16565b620005516001600160e01b03620006d916565b6040518963ffffffff1660e01b8152600401808981526020018860028111156200057757fe5b60ff16815260200187815260200186815260200180602001858152602001848152602001838152602001828103825286818151815260200191508051906020019060200280838360005b83811015620005db578181015183820152602001620005c1565b50505050905001995050505050505050505060206040518083038186803b1580156200060657600080fd5b505afa1580156200061b573d6000803e3d6000fd5b505050506040513d60208110156200063257600080fd5b50519392505050565b303b155b90565b600190565b600090565b60035490565b60045490565b60606005805480602002602001604051908101604052809291908181526020018280548015620006a857602002820191906000526020600020905b81548152602001906001019080831162000693575b5050505050905090565b600654420190565b600754600090620006d36001600160e01b03620006b216565b01905090565b600854600090620006d36001600160e01b03620006b216565b828054600181600116156101000203166002900490600052602060002090601f016020900481019282601f106200073557805160ff191683800117855562000765565b8280016001018555821562000765579182015b828111156200076557825182559160200191906001019062000748565b5062000773929150620007f7565b5090565b8280548282559060005260206000209081019282156200076557916020028201828111156200076557825182559160200191906001019062000748565b82805482825590600052602060002090810192821562000765579160200282015b8281111562000765578251829060ff16905591602001919060010190620007d5565b6200063f91905b80821115620007735760008155600101620007fe565b610aec80620008246000396000f3fe608060405234801561001057600080fd5b50600436106101215760003560e01c80636f24f8a1116100ad5780639b3a8a07116100715780639b3a8a07146102fc578063a61e393a14610304578063aa3daba91461030c578063cb00e7d314610338578063f2fde38b1461035e57610121565b80636f24f8a1146102a4578063715018a6146102ac5780637284e416146102b45780638da5cb5b146102bc5780638f32d59b146102e057610121565b8063216b9116116100f4578063216b9116146102415780633cc228fd1461024957806357d682c41461025157806363012d011461027f5780636eb067a01461029c57610121565b806306fdde03146101265780631069143a146101a357806316131a18146101fb5780632019a60814610227575b600080fd5b61012e610384565b6040805160208082528351818301528351919283929083019185019080838360005b83811015610168578181015183820152602001610150565b50505050905090810190601f1680156101955780820380516001836020036101000a031916815260200191505b509250505060405180910390f35b6101ab6103a5565b60408051602080825283518183015283519192839290830191858101910280838360005b838110156101e75781810151838201526020016101cf565b505050509050019250505060405180910390f35b6102036103fd565b6040518082600281111561021357fe5b60ff16815260200191505060405180910390f35b61022f610402565b60408051918252519081900360200190f35b61022f61040a565b61022f61040f565b61027d6004803603604081101561026757600080fd5b50803590602001356001600160a01b0316610415565b005b61027d6004803603602081101561029557600080fd5b50356104d6565b61022f61051c565b6101ab610522565b61027d610578565b61012e61061b565b6102c46106a7565b604080516001600160a01b039092168252519081900360200190f35b6102e86106b6565b604080519115158252519081900360200190f35b61022f6106c7565b61022f6106da565b61027d6004803603604081101561032257600080fd5b506001600160a01b0381351690602001356106e7565b6102e86004803603602081101561034e57600080fd5b50356001600160a01b0316610738565b61027d6004803603602081101561037457600080fd5b50356001600160a01b031661086e565b604080518082019091526007815266185b1d195c995960ca1b602082015290565b606060028054806020026020016040519081016040528092919081815260200182805480156103f357602002820191906000526020600020905b8154815260200190600101908083116103df575b5050505050905090565b600090565b600654420190565b600190565b60035490565b61041d6106b6565b61046e576040805162461bcd60e51b815260206004820181905260248201527f4f776e61626c653a2063616c6c6572206973206e6f7420746865206f776e6572604482015290519081900360640190fd5b6000819050806001600160a01b031663e0a8f6f5846040518263ffffffff1660e01b815260040180828152602001915050600060405180830381600087803b1580156104b957600080fd5b505af11580156104cd573d6000803e3d6000fd5b50505050505050565b6040805162461bcd60e51b81526020600482015260136024820152726e6f742063616c6c2d65786563757461626c6560681b604482015290519081900360640190fd5b50565b60045490565b606060058054806020026020016040519081016040528092919081815260200182805480156103f357602002820191906000526020600020908154815260200190600101908083116103df575050505050905090565b6105806106b6565b6105d1576040805162461bcd60e51b815260206004820181905260248201527f4f776e61626c653a2063616c6c6572206973206e6f7420746865206f776e6572604482015290519081900360640190fd5b603c546040516000916001600160a01b0316907f8be0079c531659141344cd1fd0a4f28419497f9722a3daafe3b4186f6b6457e0908390a3603c80546001600160a01b0319169055565b60018054604080516020601f600260001961010087891615020190951694909404938401819004810282018101909252828152606093909290918301828280156103f35780601f1061067b576101008083540402835291602001916103f3565b820191906000526020600020905b81548152906001019060200180831161068957509395945050505050565b603c546001600160a01b031690565b603c546001600160a01b0316331490565b60006007546106d4610402565b01905090565b60006008546106d4610402565b6040805162461bcd60e51b815260206004820152601b60248201527f6e6f742064656c656761746563616c6c2d65786563757461626c650000000000604482015290519081900360640190fd5b5050565b6000816001600160a01b03811663f3f4ef7961075261040a565b61075a6103fd565b61076261040f565b61076a61051c565b610772610522565b61077a610402565b6107826106c7565b61078a6106da565b6040518963ffffffff1660e01b8152600401808981526020018860028111156107af57fe5b60ff16815260200187815260200186815260200180602001858152602001848152602001838152602001828103825286818151815260200191508051906020019060200280838360005b838110156108115781810151838201526020016107f9565b50505050905001995050505050505050505060206040518083038186803b15801561083b57600080fd5b505afa15801561084f573d6000803e3d6000fd5b505050506040513d602081101561086557600080fd5b50519392505050565b6108766106b6565b6108c7576040805162461bcd60e51b815260206004820181905260248201527f4f776e61626c653a2063616c6c6572206973206e6f7420746865206f776e6572604482015290519081900360640190fd5b610519816001600160a01b0381166109105760405162461bcd60e51b8152600401808060200182810382526026815260200180610a646026913960400191505060405180910390fd5b603c546040516001600160a01b038084169216907f8be0079c531659141344cd1fd0a4f28419497f9722a3daafe3b4186f6b6457e090600090a3603c80546001600160a01b0319166001600160a01b0392909216919091179055565b600954610100900460ff16806109855750610985610a5d565b80610993575060095460ff16155b6109ce5760405162461bcd60e51b815260040180806020018281038252602e815260200180610a8a602e913960400191505060405180910390fd5b600954610100900460ff161580156109f9576009805460ff1961ff0019909116610100171660011790555b603c80546001600160a01b0319166001600160a01b0384811691909117918290556040519116906000907f8be0079c531659141344cd1fd0a4f28419497f9722a3daafe3b4186f6b6457e0908290a38015610734576009805461ff00191690555050565b303b159056fe4f776e61626c653a206e6577206f776e657220697320746865207a65726f2061646472657373436f6e747261637420696e7374616e63652068617320616c7265616479206265656e20696e697469616c697a6564a265627a7a7231582031b44b8006b72fe302997d08c67bb5522667be426b213b656580c20ee65d4bac64736f6c63430005110032436f6e747261637420696e7374616e63652068617320616c7265616479206265656e20696e697469616c697a6564",
  "linkReferences": {},
  "deployedLinkReferences": {}
}