{
  "_format": "hh-sol-artifact-1",
  "contractName": "UnitTestGovernance",
  "sourceName": "contracts/test/UnitTestGovernance.sol",
  "abi": [
    {
      "anonymous": false,
      "inputs": [
        {
          "indexed": false,
          "internalType": "uint256",
          "name": "proposalID",
          "type": "uint256"
        }
      ],
      "name": "ProposalCanceled",
      "type": "event"
    },
    {
      "anonymous": false,
      "inputs": [
        {
          "indexed": false,
          "internalType": "uint256",
          "name": "proposalID",
          "type": "uint256"
        }
      ],
      "name": "ProposalCreated",
      "type": "event"
    },
    {
      "anonymous": false,
      "inputs": [
        {
          "indexed": false,
          "internalType": "uint256",
          "name": "proposalID",
          "type": "uint256"
        }
      ],
      "name": "ProposalExecutionExpired",
      "type": "event"
    },
    {
      "anonymous": false,
      "inputs": [
        {
          "indexed": false,
          "internalType": "uint256",
          "name": "proposalID",
          "type": "uint256"
        }
      ],
      "name": "ProposalRejected",
      "type": "event"
    },
    {
      "anonymous": false,
      "inputs": [
        {
          "indexed": false,
          "internalType": "uint256",
          "name": "proposalID",
          "type": "uint256"
        }
      ],
      "name": "ProposalResolved",
      "type": "event"
    },
    {
      "anonymous": false,
      "inputs": [
        {
          "indexed": false,
          "internalType": "uint256",
          "name": "quantity",
          "type": "uint256"
        }
      ],
      "name": "TasksErased",
      "type": "event"
    },
    {
      "anonymous": false,
      "inputs": [
        {
          "indexed": false,
          "internalType": "uint256",
          "name": "startIdx",
          "type": "uint256"
        },
        {
          "indexed": false,
          "internalType": "uint256",
          "name": "endIdx",
          "type": "uint256"
        },
        {
          "indexed": false,
          "internalType": "uint256",
          "name": "handled",
          "type": "uint256"
        }
      ],
      "name": "TasksHandled",
      "type": "event"
    },
    {
      "anonymous": false,
      "inputs": [
        {
          "indexed": false,
          "internalType": "address",
          "name": "voter",
          "type": "address"
        },
        {
          "indexed": false,
          "internalType": "address",
          "name": "delegatedTo",
          "type": "address"
        },
        {
          "indexed": false,
          "internalType": "uint256",
          "name": "proposalID",
          "type": "uint256"
        }
      ],
      "name": "VoteCanceled",
      "type": "event"
    },
    {
      "anonymous": false,
      "inputs": [
        {
          "indexed": false,
          "internalType": "address",
          "name": "voter",
          "type": "address"
        },
        {
          "indexed": false,
          "internalType": "uint256",
          "name": "diff",
          "type": "uint256"
        }
      ],
      "name": "VoteWeightOverridden",
      "type": "event"
    },
    {
      "anonymous": false,
      "inputs": [
        {
          "indexed": false,
          "internalType": "address",
          "name": "voter",
          "type": "address"
        },
        {
          "indexed": false,
          "internalType": "uint256",
          "name": "diff",
          "type": "uint256"
        }
      ],
      "name": "VoteWeightUnOverridden",
      "type": "event"
    },
    {
      "anonymous": false,
      "inputs": [
        {
          "indexed": false,
          "internalType": "address",
          "name": "voter",
          "type": "address"
        },
        {
          "indexed": false,
          "internalType": "address",
          "name": "delegatedTo",
          "type": "address"
        },
        {
          "indexed": false,
          "internalType": "uint256",
          "name": "proposalID",
          "type": "uint256"
        },
        {
          "indexed": false,
          "internalType": "uint256[]",
          "name": "choices",
          "type": "uint256[]"
        },
        {
          "indexed": false,
          "internalType": "uint256",
          "name": "weight",
          "type": "uint256"
        }
      ],
      "name": "Voted",
      "type": "event"
    },
    {
      "constant": true,
      "inputs": [
        {
          "internalType": "bytes32",
          "name": "_bytes32",
          "type": "bytes32"
        }
      ],
      "name": "bytes32ToString",
      "outputs": [
        {
          "internalType": "string",
          "name": "",
          "type": "string"
        }
      ],
      "payable": false,
      "stateMutability": "pure",
      "type": "function"
    },
    {
      "constant": true,
      "inputs": [
        {
          "internalType": "uint256",
          "name": "proposalID",
          "type": "uint256"
        }
      ],
      "name": "calculateVotingTally",
      "outputs": [
        {
          "internalType": "bool",
          "name": "proposalResolved",
          "type": "bool"
        },
        {
          "internalType": "uint256",
          "name": "winnerID",
          "type": "uint256"
        },
        {
          "internalType": "uint256",
          "name": "votes",
          "type": "uint256"
        }
      ],
      "payable": false,
      "stateMutability": "view",
      "type": "function"
    },
    {
      "constant": false,
      "inputs": [
        {
          "internalType": "uint256",
          "name": "proposalID",
          "type": "uint256"
        }
      ],
      "name": "cancelProposal",
      "outputs": [],
      "payable": false,
      "stateMutability": "nonpayable",
      "type": "function"
    },
    {
      "constant": false,
      "inputs": [
        {
          "internalType": "address",
          "name": "delegatedTo",
          "type": "address"
        },
        {
          "internalType": "uint256",
          "name": "proposalID",
          "type": "uint256"
        }
      ],
      "name": "cancelVote",
      "outputs": [],
      "payable": false,
      "stateMutability": "nonpayable",
      "type": "function"
    },
    {
      "constant": false,
      "inputs": [
        {
          "internalType": "address",
          "name": "proposalContract",
          "type": "address"
        }
      ],
      "name": "createProposal",
      "outputs": [],
      "payable": true,
      "stateMutability": "payable",
      "type": "function"
    },
    {
      "constant": true,
      "inputs": [
        {
          "internalType": "uint256",
          "name": "i",
          "type": "uint256"
        }
      ],
      "name": "getTask",
      "outputs": [
        {
          "internalType": "bool",
          "name": "active",
          "type": "bool"
        },
        {
          "internalType": "uint256",
          "name": "assignment",
          "type": "uint256"
        },
        {
          "internalType": "uint256",
          "name": "proposalID",
          "type": "uint256"
        }
      ],
      "payable": false,
      "stateMutability": "view",
      "type": "function"
    },
    {
      "constant": true,
      "inputs": [
        {
          "internalType": "address",
          "name": "from",
          "type": "address"
        },
        {
          "internalType": "address",
          "name": "delegatedTo",
          "type": "address"
        },
        {
          "internalType": "uint256",
          "name": "proposalID",
          "type": "uint256"
        }
      ],
      "name": "getVote",
      "outputs": [
        {
          "internalType": "uint256",
          "name": "weight",
          "type": "uint256"
        },
        {
          "internalType": "uint256[]",
          "name": "choices",
          "type": "uint256[]"
        }
      ],
      "payable": false,
      "stateMutability": "view",
      "type": "function"
    },
    {
      "constant": false,
      "inputs": [
        {
          "internalType": "uint256",
          "name": "startIdx",
          "type": "uint256"
        },
        {
          "internalType": "uint256",
          "name": "quantity",
          "type": "uint256"
        }
      ],
      "name": "handleTasks",
      "outputs": [],
      "payable": false,
      "stateMutability": "nonpayable",
      "type": "function"
    },
    {
      "constant": false,
      "inputs": [
        {
          "internalType": "address",
          "name": "_governableContract",
          "type": "address"
        },
        {
          "internalType": "address",
          "name": "_proposalVerifier",
          "type": "address"
        }
      ],
      "name": "initialize",
      "outputs": [],
      "payable": false,
      "stateMutability": "nonpayable",
      "type": "function"
    },
    {
      "constant": true,
      "inputs": [],
      "name": "lastProposalID",
      "outputs": [
        {
          "internalType": "uint256",
          "name": "",
          "type": "uint256"
        }
      ],
      "payable": false,
      "stateMutability": "view",
      "type": "function"
    },
    {
      "constant": true,
      "inputs": [],
      "name": "maxExecutionPeriod",
      "outputs": [
        {
          "internalType": "uint256",
          "name": "",
          "type": "uint256"
        }
      ],
      "payable": false,
      "stateMutability": "pure",
      "type": "function"
    },
    {
      "constant": true,
      "inputs": [],
      "name": "maxOptions",
      "outputs": [
        {
          "internalType": "uint256",
          "name": "",
          "type": "uint256"
        }
      ],
      "payable": false,
      "stateMutability": "pure",
      "type": "function"
    },
    {
      "constant": true,
      "inputs": [
        {
          "internalType": "uint256",
          "name": "totalWeight",
          "type": "uint256"
        },
        {
          "internalType": "uint256",
          "name": "minVotesRatio",
          "type": "uint256"
        }
      ],
      "name": "minVotesAbsolute",
      "outputs": [
        {
          "internalType": "uint256",
          "name": "",
          "type": "uint256"
        }
      ],
      "payable": false,
      "stateMutability": "pure",
      "type": "function"
    },
    {
      "constant": true,
      "inputs": [
        {
          "internalType": "address",
          "name": "",
          "type": "address"
        },
        {
          "internalType": "uint256",
          "name": "",
          "type": "uint256"
        }
      ],
      "name": "overriddenWeight",
      "outputs": [
        {
          "internalType": "uint256",
          "name": "",
          "type": "uint256"
        }
      ],
      "payable": false,
      "stateMutability": "view",
      "type": "function"
    },
    {
      "constant": true,
      "inputs": [],
      "name": "proposalBurntFee",
      "outputs": [
        {
          "internalType": "uint256",
          "name": "",
          "type": "uint256"
        }
      ],
      "payable": false,
      "stateMutability": "pure",
      "type": "function"
    },
    {
      "constant": true,
      "inputs": [],
      "name": "proposalFee",
      "outputs": [
        {
          "internalType": "uint256",
          "name": "",
          "type": "uint256"
        }
      ],
      "payable": false,
      "stateMutability": "pure",
      "type": "function"
    },
    {
      "constant": true,
      "inputs": [
        {
          "internalType": "uint256",
          "name": "proposalID",
          "type": "uint256"
        },
        {
          "internalType": "uint256",
          "name": "optionID",
          "type": "uint256"
        }
      ],
      "name": "proposalOptionState",
      "outputs": [
        {
          "internalType": "uint256",
          "name": "votes",
          "type": "uint256"
        },
        {
          "internalType": "uint256",
          "name": "agreementRatio",
          "type": "uint256"
        },
        {
          "internalType": "uint256",
          "name": "agreement",
          "type": "uint256"
        }
      ],
      "payable": false,
      "stateMutability": "view",
      "type": "function"
    },
    {
      "constant": true,
      "inputs": [
        {
          "internalType": "uint256",
          "name": "proposalID",
          "type": "uint256"
        }
      ],
      "name": "proposalParams",
      "outputs": [
        {
          "internalType": "uint256",
          "name": "pType",
          "type": "uint256"
        },
        {
          "internalType": "enum Proposal.ExecType",
          "name": "executable",
          "type": "uint8"
        },
        {
          "internalType": "uint256",
          "name": "minVotes",
          "type": "uint256"
        },
        {
          "internalType": "uint256",
          "name": "minAgreement",
          "type": "uint256"
        },
        {
          "internalType": "uint256[]",
          "name": "opinionScales",
          "type": "uint256[]"
        },
        {
          "internalType": "bytes32[]",
          "name": "options",
          "type": "bytes32[]"
        },
        {
          "internalType": "address",
          "name": "proposalContract",
          "type": "address"
        },
        {
          "internalType": "uint256",
          "name": "votingStartTime",
          "type": "uint256"
        },
        {
          "internalType": "uint256",
          "name": "votingMinEndTime",
          "type": "uint256"
        },
        {
          "internalType": "uint256",
          "name": "votingMaxEndTime",
          "type": "uint256"
        }
      ],
      "payable": false,
      "stateMutability": "view",
      "type": "function"
    },
    {
      "constant": true,
      "inputs": [
        {
          "internalType": "uint256",
          "name": "proposalID",
          "type": "uint256"
        }
      ],
      "name": "proposalState",
      "outputs": [
        {
          "internalType": "uint256",
          "name": "winnerOptionID",
          "type": "uint256"
        },
        {
          "internalType": "uint256",
          "name": "votes",
          "type": "uint256"
        },
        {
          "internalType": "uint256",
          "name": "status",
          "type": "uint256"
        }
      ],
      "payable": false,
      "stateMutability": "view",
      "type": "function"
    },
    {
      "constant": false,
      "inputs": [
        {
          "internalType": "address",
          "name": "voterAddr",
          "type": "address"
        },
        {
          "internalType": "address",
          "name": "delegatedTo",
          "type": "address"
        },
        {
          "internalType": "uint256",
          "name": "proposalID",
          "type": "uint256"
        }
      ],
      "name": "recountVote",
      "outputs": [],
      "payable": false,
      "stateMutability": "nonpayable",
      "type": "function"
    },
    {
      "constant": true,
      "inputs": [],
      "name": "taskErasingReward",
      "outputs": [
        {
          "internalType": "uint256",
          "name": "",
          "type": "uint256"
        }
      ],
      "payable": false,
      "stateMutability": "pure",
      "type": "function"
    },
    {
      "constant": true,
      "inputs": [],
      "name": "taskHandlingReward",
      "outputs": [
        {
          "internalType": "uint256",
          "name": "",
          "type": "uint256"
        }
      ],
      "payable": false,
      "stateMutability": "pure",
      "type": "function"
    },
    {
      "constant": false,
      "inputs": [
        {
          "internalType": "uint256",
          "name": "quantity",
          "type": "uint256"
        }
      ],
      "name": "tasksCleanup",
      "outputs": [],
      "payable": false,
      "stateMutability": "nonpayable",
      "type": "function"
    },
    {
      "constant": true,
      "inputs": [],
      "name": "tasksCount",
      "outputs": [
        {
          "internalType": "uint256",
          "name": "",
          "type": "uint256"
        }
      ],
      "payable": false,
      "stateMutability": "view",
      "type": "function"
    },
    {
      "constant": true,
      "inputs": [],
      "name": "version",
      "outputs": [
        {
          "internalType": "bytes4",
          "name": "",
          "type": "bytes4"
        }
      ],
      "payable": false,
      "stateMutability": "pure",
      "type": "function"
    },
    {
      "constant": false,
      "inputs": [
        {
          "internalType": "address",
          "name": "delegatedTo",
          "type": "address"
        },
        {
          "internalType": "uint256",
          "name": "proposalID",
          "type": "uint256"
        },
        {
          "internalType": "uint256[]",
          "name": "choices",
          "type": "uint256[]"
        }
      ],
      "name": "vote",
      "outputs": [],
      "payable": false,
      "stateMutability": "nonpayable",
      "type": "function"
    }
  ],
  "bytecode": "0x608060405234801561001057600080fd5b50613b8c806100206000396000f3fe6080604052600436106101815760003560e01c80636b2ad7d8116100d1578063bb6a0f071161008a578063cfa1afa311610064578063cfa1afa314610690578063d26331d4146107ab578063e0a8f6f5146107d5578063e3a4d709146107ff57610181565b8063bb6a0f0714610651578063c25c2f2614610666578063c27cabb51461067b57610181565b80636b2ad7d8146104a55780638a444bd7146104d55780639201de55146104ea578063a1d373d714610589578063aea2ddbd1461059e578063b9e6842b146105b357610181565b806321edf2eb1161013e57806354fd4d501161011857806354fd4d50146103cd5780635df17077146103ff5780635f89801e14610414578063699215061461046257610181565b806321edf2eb1461032f578063485cc95514610368578063491adeee146103a357610181565b806307eecaf5146101865780631191e270146101ae57806314262d79146101f0578063172c18b11461023a5780631d65e77e146102cc5780632177d6fc146102f6575b600080fd5b6101ac6004803603602081101561019c57600080fd5b50356001600160a01b0316610814565b005b3480156101ba57600080fd5b506101de600480360360408110156101d157600080fd5b5080359060200135610927565b60408051918252519081900360200190f35b3480156101fc57600080fd5b5061021a6004803603602081101561021357600080fd5b5035610945565b604080519315158452602084019290925282820152519081900360600190f35b34801561024657600080fd5b506101ac6004803603606081101561025d57600080fd5b6001600160a01b038235169160208101359181019060608101604082013564010000000081111561028d57600080fd5b82018360208201111561029f57600080fd5b803590602001918460208302840111640100000000831117156102c157600080fd5b509092509050610973565b3480156102d857600080fd5b5061021a600480360360208110156102ef57600080fd5b5035610c32565b34801561030257600080fd5b506101de6004803603604081101561031957600080fd5b506001600160a01b038135169060200135610c98565b34801561033b57600080fd5b506101ac6004803603604081101561035257600080fd5b506001600160a01b038135169060200135610cb5565b34801561037457600080fd5b506101ac6004803603604081101561038b57600080fd5b506001600160a01b0381358116916020013516610e68565b3480156103af57600080fd5b506101ac600480360360208110156103c657600080fd5b5035610f43565b3480156103d957600080fd5b506103e26110ba565b604080516001600160e01b03199092168252519081900360200190f35b34801561040b57600080fd5b506101de6110c6565b34801561042057600080fd5b506104446004803603604081101561043757600080fd5b50803590602001356110cb565b60408051938452602084019290925282820152519081900360600190f35b34801561046e57600080fd5b506101ac6004803603606081101561048557600080fd5b506001600160a01b0381358116916020810135909116906040013561110d565b3480156104b157600080fd5b506101ac600480360360408110156104c857600080fd5b50803590602001356112c1565b3480156104e157600080fd5b506101de611414565b3480156104f657600080fd5b506105146004803603602081101561050d57600080fd5b5035611420565b6040805160208082528351818301528351919283929083019185019080838360005b8381101561054e578181015183820152602001610536565b50505050905090810190601f16801561057b5780820380516001836020036101000a031916815260200191505b509250505060405180910390f35b34801561059557600080fd5b506101de611494565b3480156105aa57600080fd5b506101de61149a565b3480156105bf57600080fd5b506105f6600480360360608110156105d657600080fd5b506001600160a01b038135811691602081013590911690604001356114a6565b6040518083815260200180602001828103825283818151815260200191508051906020019060200280838360005b8381101561063c578181015183820152602001610624565b50505050905001935050505060405180910390f35b34801561065d57600080fd5b506101de61155b565b34801561067257600080fd5b506101de611561565b34801561068757600080fd5b506101de611568565b34801561069c57600080fd5b506106ba600480360360208110156106b357600080fd5b5035611589565b604051808b81526020018a60028111156106d057fe5b60ff1681526020018981526020018881526020018060200180602001876001600160a01b03166001600160a01b03168152602001868152602001858152602001848152602001838103835289818151815260200191508051906020019060200280838360005b8381101561074e578181015183820152602001610736565b50505050905001838103825288818151815260200191508051906020019060200280838360005b8381101561078d578181015183820152602001610775565b505050509050019c5050505050505050505050505060405180910390f35b3480156107b757600080fd5b50610444600480360360208110156107ce57600080fd5b5035611755565b3480156107e157600080fd5b506101ac600480360360208110156107f857600080fd5b50356118f8565b34801561080b57600080fd5b506101de611ad7565b6033805460010190819055610827611568565b341461087a576040805162461bcd60e51b815260206004820152601a60248201527f706169642070726f706f73616c206665652069732077726f6e67000000000000604482015290519081900360640190fd5b606880546001019081905561088f9083611ae3565b61089a6068546123a3565b6108aa6108a5611414565b612454565b60685460408051918252517fc2c021f5d73c63c481d336fbbafec58f694fc45095f00b02d2deb8cca59afe079181900360200190a16033548114610923576040805162461bcd60e51b815260206004820152601f6024820152600080516020613a21833981519152604482015290519081900360640190fd5b5050565b6000610931612481565b8284028161093b57fe5b0490505b92915050565b6000818152606a60205260408120819081906109608161248d565b600c929092015490969195509350915050565b60338054600101908190556001600160a01b038516610990573394505b6000848152606a6020526040902060058101546001600160a01b03166109e75760405162461bcd60e51b8152600401808060200182810382526025815260200180613ade6025913960400191505060405180910390fd5b6109f481600d01546125b7565b610a3d576040805162461bcd60e51b815260206004820152601560248201527470726f706f73616c2069736e27742061637469766560581b604482015290519081900360640190fd5b6007810154421015610a96576040805162461bcd60e51b815260206004820152601b60248201527f70726f706f73616c20766f74696e6720686173277420626567756e0000000000604482015290519081900360640190fd5b336000908152606c602090815260408083206001600160a01b038a168452825280832088845290915290205415610b0a576040805162461bcd60e51b8152602060048201526013602482015272766f746520616c72656164792065786973747360681b604482015290519081900360640190fd5b60068101548314610b62576040805162461bcd60e51b815260206004820152601760248201527f77726f6e67206e756d626572206f662063686f69636573000000000000000000604482015290519081900360640190fd5b6000610ba38633898888808060200260200160405190810160405280939291908181526020018383602002808284376000920191909152506125bb92505050565b905080610be5576040805162461bcd60e51b815260206004820152600b60248201526a1e995c9bc81dd95a59da1d60aa1b604482015290519081900360640190fd5b50506033548114610c2b576040805162461bcd60e51b815260206004820152601f6024820152600080516020613a21833981519152604482015290519081900360640190fd5b5050505050565b6000806000610c3f613865565b60698581548110610c4c57fe5b600091825260209182902060408051606081018252600393909302909101805460ff16151580845260018201549484018590526002909101549290910182905297919650945092505050565b606b60209081526000928352604080842090915290825290205481565b60338054600101908190556001600160a01b038316610cd2573392505b610cda613888565b336000908152606c602090815260408083206001600160a01b03881684528252808320868452825291829020825180840184528154815260018201805485518186028101860190965280865291949293858101939290830182828015610d5f57602002820191906000526020600020905b815481526020019060010190808311610d4b575b505050919092525050815191925050610daf576040805162461bcd60e51b815260206004820152600d60248201526c191bd95cdb89dd08195e1a5cdd609a1b604482015290519081900360640190fd5b6000838152606a60205260409020600d0154610dca906125b7565b610e13576040805162461bcd60e51b815260206004820152601560248201527470726f706f73616c2069736e27742061637469766560581b604482015290519081900360640190fd5b610e1e3385856127ae565b506033548114610e63576040805162461bcd60e51b815260206004820152601f6024820152600080516020613a21833981519152604482015290519081900360640190fd5b505050565b600054610100900460ff1680610e815750610e81612902565b80610e8f575060005460ff16155b610eca5760405162461bcd60e51b815260040180806020018281038252602e815260200180613ab0602e913960400191505060405180910390fd5b600054610100900460ff16158015610ef5576000805460ff1961ff0019909116610100171660011790555b610efd612908565b606680546001600160a01b038086166001600160a01b03199283161790925560678054928516929091169190911790558015610e63576000805461ff0019169055505050565b603380546001019081905560005b60695415801590610f6157508281105b15610fb657606980546000198101908110610f7857fe5b600091825260209091206003909102015460ff16610fa9576069805490610fa39060001983016138a2565b50610fae565b610fb6565b600101610f51565b60008111610ffd576040805162461bcd60e51b815260206004820152600f60248201526e1b9bc81d185cdadcc8195c985cd959608a1b604482015290519081900360640190fd5b6040805182815290517fdd64b087b4726a6d5006bfae34869d1044e415cd6fc53054b69619ee337b730d9181900360200190a1336108fc61104c61103f61149a565b849063ffffffff6129af16565b6040518115909202916000818181858888f19350505050158015611074573d6000803e3d6000fd5b50506033548114610923576040805162461bcd60e51b815260206004820152601f6024820152600080516020613a21833981519152604482015290519081900360640190fd5b633030303160e01b5b90565b600a90565b6000828152606a60209081526040808320848452600a8101909252822080548392839290916110f982612a0f565b826001015494509450945050509250925092565b603380546001908101918290556001600160a01b038086166000908152606c602081815260408084209489168085529482528084208885528252808420948452918152818320815281832087845290529020918101549091906111a7576040805162461bcd60e51b815260206004820152600d60248201526c191bd95cdb89dd08195e1a5cdd609a1b604482015290519081900360640190fd5b6000848152606a60205260409020600d01546111c2906125b7565b61120b576040805162461bcd60e51b815260206004820152601560248201527470726f706f73616c2069736e27742061637469766560581b604482015290519081900360640190fd5b8154815461121a888888612a4e565b5083548354838214158061122e5750808314155b611271576040805162461bcd60e51b815260206004820152600f60248201526e1b9bdd1a1a5b99c818da185b99d959608a1b604482015290519081900360640190fd5b50505050505060335481146112bb576040805162461bcd60e51b815260206004820152601f6024820152600080516020613a21833981519152604482015290519081900360640190fd5b50505050565b60338054600101908190556000835b606954811080156112e2575083850181105b15611304576112f081612aee565b156112fc576001820191505b6001016112d0565b81611349576040805162461bcd60e51b815260206004820152601060248201526f1b9bc81d185cdadcc81a185b991b195960821b604482015290519081900360640190fd5b604080518681526020810183905280820184905290517f010b51ac92c2d2e8fe9c84de31065ca878ff8274a1e5e6d31799520b7d16bb589181900360600190a1336108fc6113a5611398611ad7565b859063ffffffff6129af16565b6040518115909202916000818181858888f193505050501580156113cd573d6000803e3d6000fd5b5050506033548114610e63576040805162461bcd60e51b815260206004820152601f6024820152600080516020613a21833981519152604482015290519081900360640190fd5b6706f05b59d3b2000090565b60408051602080825281830190925260609182919060208201818038833901905050905060005b602081101561148b5783816020811061145c57fe5b1a60f81b82828151811061146c57fe5b60200101906001600160f81b031916908160001a905350600101611447565b5090505b919050565b60685481565b67016345785d8a000090565b600060606114b2613888565b6001600160a01b038087166000908152606c60209081526040808320938916835292815282822087835281529082902082518084018452815481526001820180548551818602810186019096528086529194929385810193929083018282801561153b57602002820191906000526020600020905b815481526020019060010190808311611527575b505050919092525050815160209092015191989197509095505050505050565b60695490565b6203f48090565b600061157261149a565b61157a611ad7565b611582611414565b0101905090565b6000806000806060806000806000806115a06138ce565b60008c8152606a602090815260409182902082516101008101909352805483526001810154909183019060ff1660028111156115d857fe5b60028111156115e357fe5b815260200160028201548152602001600382015481526020016004820180548060200260200160405190810160405280929190818152602001828054801561164a57602002820191906000526020600020905b815481526020019060010190808311611636575b505050918352505060058201546001600160a01b031660208083019190915260068301805460408051828502810185018252828152940193928301828280156116b257602002820191906000526020600020905b81548152602001906001019080831161169e575b50505050508152602001600782016040518060600160405290816000820154815260200160018201548152602001600282015481525050815250509050806000015181602001518260400151836060015184608001518560c001518660a001518760e00151600001518860e00151602001518960e00151604001518595508494509a509a509a509a509a509a509a509a509a509a50509193959799509193959799565b6000806000611762613922565b6000858152606a602052604090819020815161018081019092528054608083019081526001820154839190839060a084019060ff1660028111156117a257fe5b60028111156117ad57fe5b815260200160028201548152602001600382015481526020016004820180548060200260200160405190810160405280929190818152602001828054801561181457602002820191906000526020600020905b815481526020019060010190808311611800575b505050918352505060058201546001600160a01b0316602080830191909152600683018054604080518285028101850182528281529401939283018282801561187c57602002820191906000526020600020905b815481526020019060010190808311611868575b50505050508152602001600782016040518060600160405290816000820154815260200160018201548152602001600282015481525050815250508152602001600b8201548152602001600c8201548152602001600d820154815250509050806020015181604001518260600151935093509350509193909250565b60338054600101908190556000828152606a6020526040902060058101546001600160a01b031661195a5760405162461bcd60e51b8152600401808060200182810382526025815260200180613ade6025913960400191505060405180910390fd5b61196781600d01546125b7565b6119b0576040805162461bcd60e51b815260206004820152601560248201527470726f706f73616c2069736e27742061637469766560581b604482015290519081900360640190fd5b600c81015415611a07576040805162461bcd60e51b815260206004820152601860248201527f766f74696e672068617320616c726561647920626567756e0000000000000000604482015290519081900360640190fd5b60058101546001600160a01b03163314611a525760405162461bcd60e51b8152600401808060200182810382526027815260200180613a686027913960400191505060405180910390fd5b611a5a612bb6565b600d8201556040805184815290517f789cf55be980739dad1d0699b93b58e806b51c9d96619bfa8fe0a28abaa7b30c9181900360200190a1506033548114610923576040805162461bcd60e51b815260206004820152601f6024820152600080516020613a21833981519152604482015290519081900360640190fd5b67058d15e17628000090565b6001600160a01b038116611b37576040805162461bcd60e51b8152602060048201526016602482015275656d7074792070726f706f73616c206164647265737360501b604482015290519081900360640190fd5b60008190506000816001600160a01b031663216b91166040518163ffffffff1660e01b815260040160206040518083038186803b158015611b7757600080fd5b505afa158015611b8b573d6000803e3d6000fd5b505050506040513d6020811015611ba157600080fd5b5051604080516302c2634360e31b815290519192506000916001600160a01b038516916316131a18916004808301926020929190829003018186803b158015611be957600080fd5b505afa158015611bfd573d6000803e3d6000fd5b505050506040513d6020811015611c1357600080fd5b505160408051633cc228fd60e01b815290519192506000916001600160a01b03861691633cc228fd916004808301926020929190829003018186803b158015611c5b57600080fd5b505afa158015611c6f573d6000803e3d6000fd5b505050506040513d6020811015611c8557600080fd5b505160408051630375833d60e51b815290519192506000916001600160a01b03871691636eb067a0916004808301926020929190829003018186803b158015611ccd57600080fd5b505afa158015611ce1573d6000803e3d6000fd5b505050506040513d6020811015611cf757600080fd5b505160408051636f24f8a160e01b815290519192506060916001600160a01b03881691636f24f8a1916004808301926000929190829003018186803b158015611d3f57600080fd5b505afa158015611d53573d6000803e3d6000fd5b505050506040513d6000823e601f3d908101601f191682016040526020811015611d7c57600080fd5b8101908080516040519392919084640100000000821115611d9c57600080fd5b908301906020820185811115611db157600080fd5b8251866020820283011164010000000082111715611dce57600080fd5b82525081516020918201928201910280838360005b83811015611dfb578181015183820152602001611de3565b5050505090500160405250505090506000866001600160a01b0316632019a6086040518163ffffffff1660e01b815260040160206040518083038186803b158015611e4557600080fd5b505afa158015611e59573d6000803e3d6000fd5b505050506040513d6020811015611e6f57600080fd5b505160408051639b3a8a0760e01b815290519192506000916001600160a01b038a1691639b3a8a07916004808301926020929190829003018186803b158015611eb757600080fd5b505afa158015611ecb573d6000803e3d6000fd5b505050506040513d6020811015611ee157600080fd5b50516040805163530f1c9d60e11b815290519192506000916001600160a01b038b169163a61e393a916004808301926020929190829003018186803b158015611f2957600080fd5b505afa158015611f3d573d6000803e3d6000fd5b505050506040513d6020811015611f5357600080fd5b5051604080516308348a1d60e11b815290519192506060916001600160a01b038c1691631069143a916004808301926000929190829003018186803b158015611f9b57600080fd5b505afa158015611faf573d6000803e3d6000fd5b505050506040513d6000823e601f3d908101601f191682016040526020811015611fd857600080fd5b8101908080516040519392919084640100000000821115611ff857600080fd5b90830190602082018581111561200d57600080fd5b825186602082028301116401000000008211171561202a57600080fd5b82525081516020918201928201910280838360005b8381101561205757818101518382015260200161203f565b5050505090500160405250505090508051600014156120a75760405162461bcd60e51b8152600401808060200182810382526030815260200180613b036030913960400191505060405180910390fd5b6120af6110c6565b815111156120f7576040805162461bcd60e51b815260206004820152601060248201526f746f6f206d616e79206f7074696f6e7360801b604482015290519081900360640190fd5b60675460405163f3f4ef7960e01b8152600481018b81526000926001600160a01b03169163f3f4ef79918d918d918d918d918d918d918d918d919060240188600281111561214157fe5b60ff16815260200187815260200186815260200180602001858152602001848152602001838152602001828103825286818151815260200191508051906020019060200280838360005b838110156121a357818101518382015260200161218b565b50505050905001995050505050505050505060206040518083038186803b1580156121cd57600080fd5b505afa1580156121e1573d6000803e3d6000fd5b505050506040513d60208110156121f757600080fd5b50519050806122375760405162461bcd60e51b8152600401808060200182810382526027815260200180613a416027913960400191505060405180910390fd5b60675460408051631a529da560e31b8152600481018d90526001600160a01b038f811660248301529151919092169163d294ed28916044808301926020929190829003018186803b15801561228b57600080fd5b505afa15801561229f573d6000803e3d6000fd5b505050506040513d60208110156122b557600080fd5b50519050806122f55760405162461bcd60e51b8152600401808060200182810382526025815260200180613b336025913960400191505060405180910390fd5b60008d8152606a602052604090208a8155600180820180548c9260ff199091169083600281111561232257fe5b02179055506002810189905560038101889055865161234a90600483019060208a0190613950565b506005810180546001600160a01b0319166001600160a01b038f1617905560078101869055600881018590556009810184905582516123929060068301906020860190613950565b505050505050505050505050505050565b6040805160608101825260018082526020820181815292820193845260698054918201815560005290517f7fb4302e8e91f9110a6554c2c0a24601252c2a42c2220ca988efcfe3999143086003909202918201805460ff191691151591909117905590517f7fb4302e8e91f9110a6554c2c0a24601252c2a42c2220ca988efcfe39991430982015590517f7fb4302e8e91f9110a6554c2c0a24601252c2a42c2220ca988efcfe39991430a90910155565b60405160009082156108fc0290839083818181858288f19350505050158015610923573d6000803e3d6000fd5b670de0b6b3a764000090565b6000806000612519606660009054906101000a90046001600160a01b03166001600160a01b03166306aba0e16040518163ffffffff1660e01b815260040160206040518083038186803b1580156124e357600080fd5b505afa1580156124f7573d6000803e3d6000fd5b505050506040513d602081101561250d57600080fd5b50516002860154610927565b6006850154600c86015491925060009183111561253e576000945092506125b2915050565b60005b60068701548110156125a2576000818152600a88016020526040812082919061256990612a0f565b60038a015490915081101561257f57505061259a565b84158061258b57508481115b15612597578094508293505b50505b600101612541565b5060068601548114159450925050505b915091565b1590565b6000836001600160a01b0316836001600160a01b031614156126b75760665460408051636833935760e01b81526001600160a01b03878116600483015291516000939290921691636833935791602480820192602092909190829003018186803b15801561262857600080fd5b505afa15801561263c573d6000803e3d6000fd5b505050506040513d602081101561265257600080fd5b50516001600160a01b0386166000908152606b602090815260408083208a84529091529020549091508082111561268d578082039150612692565b600091505b816126a2576000925050506127a6565b6126af8787888786612bbb565b5090506127a6565b6001600160a01b0383166000908152606c602090815260408083208252808320888452909152902060010154156126f5576126f3838487612a4e565b505b6066546040805163a481732160e01b81526001600160a01b03878116600483015286811660248301529151600093929092169163a481732191604480820192602092909190829003018186803b15801561274e57600080fd5b505afa158015612762573d6000803e3d6000fd5b505050506040513d602081101561277857600080fd5b50519050612787848783612ce4565b806127965760009150506127a6565b6127a38686868685612bbb565b90505b949350505050565b6001600160a01b038084166000908152606c60209081526040808320938616835292815282822084835290522080546127e75750610e63565b826001600160a01b0316846001600160a01b03161461280f5761280f83838360000154612e1e565b612870828260010180548060200260200160405190810160405280929190818152602001828054801561286157602002820191906000526020600020905b81548152602001906001019080831161284d575b50505050508360000154612f58565b6001600160a01b038085166000908152606c6020908152604080832093871683529281528282208583529052908120818155906128b0600183018261399b565b5050604080516001600160a01b0380871682528516602082015280820184905290517f666685d133047310e2a2e8c4f6794b6dccb4e9ad9c6903ac753fb10d8918b6499181900360600190a150505050565b303b1590565b600054610100900460ff16806129215750612921612902565b8061292f575060005460ff16155b61296a5760405162461bcd60e51b815260040180806020018281038252602e815260200180613ab0602e913960400191505060405180910390fd5b600054610100900460ff16158015612995576000805460ff1961ff0019909116610100171660011790555b600160335580156129ac576000805461ff00191690555b50565b6000826129be5750600061093f565b828202828482816129cb57fe5b0414612a085760405162461bcd60e51b8152600401808060200182810382526021815260200180613a8f6021913960400191505060405180910390fd5b9392505050565b8054600090612a205750600061148f565b815461093f90612a42612a31612481565b60018601549063ffffffff6129af16565b9063ffffffff612fd416565b6001600160a01b038084166000908152606c6020908152604080832093861683529281528282208483528152828220600101805484518184028101840190955280855292936060939092830182828015612ac757602002820191906000526020600020905b815481526020019060010190808311612ab3575b50505050509050612ad98585856127ae565b612ae5838686846125bb565b95945050505050565b6069546000908210612b3e576040805162461bcd60e51b81526020600482015260146024820152730d2dcc6dee4e4cac6e840e8c2e6d640d2dcc8caf60631b604482015290519081900360640190fd5b600060698381548110612b4d57fe5b60009182526020909120600390910201805490915060ff16612b7357600091505061148f565b612b9f60698481548110612b8357fe5b9060005260206000209060030201600201548260010154613016565b91508115612bb057805460ff191681555b50919050565b600490565b60408051808201825282815260208082018581526001600160a01b038089166000908152606c845285812091891681529083528481208a82528352939093208251815592518051929392612c159260018501920190613950565b50905050612c24858383613065565b7f6e5f0f6e0ce2bdcdb0a82952fc6eb90c4c22f0b6228e4619b5dc2118e1166a12848487858560405180866001600160a01b03166001600160a01b03168152602001856001600160a01b03166001600160a01b0316815260200184815260200180602001838152602001828103825284818151815260200191508051906020019060200280838360005b83811015612cc6578181015183820152602001612cae565b50505050905001965050505050505060405180910390a15050505050565b6001600160a01b0383166000908152606b60209081526040808320858452909152902054612d18818363ffffffff6130e116565b6001600160a01b0385166000818152606b602090815260408083208884528252808320859055928252606c8152828220815282822087835290522060018101549192509015612dd3578054612d73908463ffffffff61313b16565b815560018101805460408051602080840282018101909252828152612dd39388939192909190830182828015612dc857602002820191906000526020600020905b815481526020019060010190808311612db4575b505050505085612f58565b604080516001600160a01b03871681526020810185905281517f68fe85c5f71a2900fddf574935a27d4f1cb28af34d4fa2742b202684b45d3d14929181900390910190a15050505050565b6001600160a01b0383166000908152606b60209081526040808320858452909152902054612e52818363ffffffff61313b16565b6001600160a01b0385166000818152606b602090815260408083208884528252808320859055928252606c8152828220815282822087835290522060018101549192509015612f0d578054612ead908463ffffffff6130e116565b815560018101805460408051602080840282018101909252828152612f0d9388939192909190830182828015612f0257602002820191906000526020600020905b815481526020019060010190808311612eee575b505050505085613065565b604080516001600160a01b03871681526020810185905281517f11d7313426c62d856bd4ea20cdef8b93af4b40d2ea5b8f6f962fc705dbdcdbef929181900390910190a15050505050565b6000838152606a60205260409020600c810154612f7b908363ffffffff61313b16565b600c82015560005b6006820154811015610c2b57612fcc848281518110612f9e57fe5b6020908102919091018101516000848152600a8601909252604090912090856004860163ffffffff61317d16565b600101612f83565b6000612a0883836040518060400160405280601a81526020017f536166654d6174683a206469766973696f6e206279207a65726f000000000000815250613235565b6000828152606a60205260408120600d810154613032906125b7565b61304057600191505061093f565b600183141561305b5761305384826132d7565b91505061093f565b5060009392505050565b6000838152606a60205260409020600c810154613088908363ffffffff6130e116565b600c82015560005b6006820154811015610c2b576130d98482815181106130ab57fe5b6020908102919091018101516000848152600a8601909252604090912090856004860163ffffffff6134c516565b600101613090565b600082820183811015612a08576040805162461bcd60e51b815260206004820152601b60248201527f536166654d6174683a206164646974696f6e206f766572666c6f770000000000604482015290519081900360640190fd5b6000612a0883836040518060400160405280601e81526020017f536166654d6174683a207375627472616374696f6e206f766572666c6f77000081525061355e565b805483106131c5576040805162461bcd60e51b815260206004820152601060248201526f1ddc9bdb99c81bdc1a5b9a5bdb88125160821b604482015290519081900360640190fd5b60008184815481106131d357fe5b60009182526020909120015485549091506131f4908463ffffffff61313b16565b8555613226613215613205846135b8565b612a42868563ffffffff6129af16565b60018701549063ffffffff61313b16565b85600101819055505050505050565b600081836132c15760405162461bcd60e51b81526004018080602001828103825283818151815260200191508051906020019080838360005b8381101561328657818101518382015260200161326e565b50505050905090810190601f1680156132b35780820380516001836020036101000a031916815260200191505b509250505060405180910390fd5b5060008385816132cd57fe5b0495945050505050565b600080613361606660009054906101000a90046001600160a01b03166001600160a01b03166306aba0e16040518163ffffffff1660e01b815260040160206040518083038186803b15801561332b57600080fd5b505afa15801561333f573d6000803e3d6000fd5b505050506040513d602081101561335557600080fd5b50516002850154610927565b600984015460088501549192504290811015916000911080159061338957508285600c015410155b905081158015613397575080155b156133a8576000935050505061093f565b6000806133b48761248d565b915091508115613476576000806133cb89846135df565b91509150816133e457600097505050505050505061093f565b8061342e576133f1613856565b600d8a0155604080518b815290517f663674d96fd5c2a954bf75ad2e6795f9c9701eb687a7a8f3297c7a299467c9419181900360200190a161346f565b61343661385b565b600d8a0155604080518b815290517fe8365dd25802fb5113a4ebd6fbe5fee885b5ea470b6b1467f3f4df69e490ed879181900360200190a15b50506134b7565b61347e613860565b600d8801556040805189815290517fd92fba445edb3153b571e6df782d7a66fd0ce668519273670820ee3a86da0ef49181900360200190a15b506001979650505050505050565b8054831061350d576040805162461bcd60e51b815260206004820152601060248201526f1ddc9bdb99c81bdc1a5b9a5bdb88125160821b604482015290519081900360640190fd5b600081848154811061351b57fe5b600091825260209091200154855490915061353c908463ffffffff6130e116565b855561322661354d613205846135b8565b60018701549063ffffffff6130e116565b600081848411156135b05760405162461bcd60e51b815260206004820181815283516024840152835190928392604490910191908501908083836000831561328657818101518382015260200161326e565b505050900390565b8054600090829060001981019081106135cd57fe5b90600052602060002001549050919050565b6000808060018086015460ff1660028111156135f757fe5b148061361557506002600186015460ff16600281111561361357fe5b145b90508061362a5760016000925092505061384f565b600b8501849055600061363b611561565b6009870154014211905080156136595760018093509350505061384f565b60058601546001600160a01b0316600060606001808a015460ff16600281111561367f57fe5b1415613762576040805160248082018b905282518083039091018152604490910182526020810180516001600160e01b03166363012d0160e01b178152915181516001600160a01b0387169382918083835b602083106136f05780518252601f1990920191602091820191016136d1565b6001836020036101000a0380198251168184511680821785525050505050509050019150506000604051808303816000865af19150503d8060008114613752576040519150601f19603f3d011682016040523d82523d6000602084013e613757565b606091505b509092509050613844565b604080516001600160a01b0385166024820181905260448083018c905283518084039091018152606490920183526020820180516001600160e01b031663aa3daba960e01b17815292518251919390918291908083835b602083106137d85780518252601f1990920191602091820191016137b9565b6001836020036101000a038019825116818451168082178552505050505050905001915050600060405180830381855af49150503d8060008114613838576040519150601f19603f3d011682016040523d82523d6000602084013e61383d565b606091505b5090925090505b509450600093505050505b9250929050565b600190565b600890565b600290565b604051806060016040528060001515815260200160008152602001600081525090565b604051806040016040528060008152602001606081525090565b815481835581811115610e6357600302816003028360005260206000209182019101610e6391906139b9565b60408051610100810190915260008082526020820190815260200160008152602001600081526020016060815260200160006001600160a01b031681526020016060815260200161391d6139e5565b905290565b60405180608001604052806139356138ce565b81526020016000815260200160008152602001600081525090565b82805482825590600052602060002090810192821561398b579160200282015b8281111561398b578251825591602001919060010190613970565b50613997929150613a06565b5090565b50805460008255906000526020600020908101906129ac9190613a06565b6110c391905b8082111561399757805460ff1916815560006001820181905560028201556003016139bf565b60405180606001604052806000815260200160008152602001600081525090565b6110c391905b808211156139975760008155600101613a0c56fe5265656e7472616e637947756172643a207265656e7472616e742063616c6c0070726f706f73616c20706172616d6574657273206661696c656420766572696669636174696f6e6d7573742062652073656e742066726f6d207468652070726f706f73616c20636f6e7472616374536166654d6174683a206d756c7469706c69636174696f6e206f766572666c6f77436f6e747261637420696e7374616e63652068617320616c7265616479206265656e20696e697469616c697a656470726f706f73616c2077697468206120676976656e20494420646f65736e7420657869737470726f706f73616c206f7074696f6e732061726520656d707479202d206e6f7468696e6720746f20766f746520666f7270726f706f73616c20636f6e7472616374206661696c656420766572696669636174696f6ea265627a7a7231582088badcc292f86f56ca7850f497a65f41da59a82df8662eefef88c0e97e8d355564736f6c63430005110032",
  "linkReferences": {},
  "deployedLinkReferences": {}
}