{
  "_format": "hh-sol-artifact-1",
  "contractName": "Cancelable",
  "sourceName": "contracts/proposal/base/Cancelable.sol",
  "abi": [
    {
      "inputs": [],
      "payable": false,
      "stateMutability": "nonpayable",
      "type": "constructor"
    },
    {
      "anonymous": false,
      "inputs": [
        {
          "indexed": true,
          "internalType": "address",
          "name": "previousOwner",
          "type": "address"
        },
        {
          "indexed": true,
          "internalType": "address",
          "name": "newOwner",
          "type": "address"
        }
      ],
      "name": "OwnershipTransferred",
      "type": "event"
    },
    {
      "constant": false,
      "inputs": [
        {
          "internalType": "uint256",
          "name": "myID",
          "type": "uint256"
        },
        {
          "internalType": "address",
          "name": "govAddress",
          "type": "address"
        }
      ],
      "name": "cancel",
      "outputs": [],
      "payable": false,
      "stateMutability": "nonpayable",
      "type": "function"
    },
    {
      "constant": true,
      "inputs": [],
      "name": "isOwner",
      "outputs": [
        {
          "internalType": "bool",
          "name": "",
          "type": "bool"
        }
      ],
      "payable": false,
      "stateMutability": "view",
      "type": "function"
    },
    {
      "constant": true,
      "inputs": [],
      "name": "owner",
      "outputs": [
        {
          "internalType": "address",
          "name": "",
          "type": "address"
        }
      ],
      "payable": false,
      "stateMutability": "view",
      "type": "function"
    },
    {
      "constant": false,
      "inputs": [],
      "name": "renounceOwnership",
      "outputs": [],
      "payable": false,
      "stateMutability": "nonpayable",
      "type": "function"
    },
    {
      "constant": false,
      "inputs": [
        {
          "internalType": "address",
          "name": "newOwner",
          "type": "address"
        }
      ],
      "name": "transferOwnership",
      "outputs": [],
      "payable": false,
      "stateMutability": "nonpayable",
      "type": "function"
    }
  ],
  "bytecode": "0x608060405234801561001057600080fd5b506100243361002960201b6103821760201c565b61012a565b600054610100900460ff168061004b575061004b6001600160e01b0361012416565b80610059575060005460ff16155b6100945760405162461bcd60e51b815260040180806020018281038252602e81526020018061063c602e913960400191505060405180910390fd5b600054610100900460ff161580156100bf576000805460ff1961ff0019909116610100171660011790555b603380546001600160a01b0319166001600160a01b0384811691909117918290556040519116906000907f8be0079c531659141344cd1fd0a4f28419497f9722a3daafe3b4186f6b6457e0908290a38015610120576000805461ff00191690555b5050565b303b1590565b610503806101396000396000f3fe608060405234801561001057600080fd5b50600436106100575760003560e01c806357d682c41461005c578063715018a61461008a5780638da5cb5b146100925780638f32d59b146100b6578063f2fde38b146100d2575b600080fd5b6100886004803603604081101561007257600080fd5b50803590602001356001600160a01b03166100f8565b005b6100886101b9565b61009a61025c565b604080516001600160a01b039092168252519081900360200190f35b6100be61026b565b604080519115158252519081900360200190f35b610088600480360360208110156100e857600080fd5b50356001600160a01b031661027c565b61010061026b565b610151576040805162461bcd60e51b815260206004820181905260248201527f4f776e61626c653a2063616c6c6572206973206e6f7420746865206f776e6572604482015290519081900360640190fd5b6000819050806001600160a01b031663e0a8f6f5846040518263ffffffff1660e01b815260040180828152602001915050600060405180830381600087803b15801561019c57600080fd5b505af11580156101b0573d6000803e3d6000fd5b50505050505050565b6101c161026b565b610212576040805162461bcd60e51b815260206004820181905260248201527f4f776e61626c653a2063616c6c6572206973206e6f7420746865206f776e6572604482015290519081900360640190fd5b6033546040516000916001600160a01b0316907f8be0079c531659141344cd1fd0a4f28419497f9722a3daafe3b4186f6b6457e0908390a3603380546001600160a01b0319169055565b6033546001600160a01b031690565b6033546001600160a01b0316331490565b61028461026b565b6102d5576040805162461bcd60e51b815260206004820181905260248201527f4f776e61626c653a2063616c6c6572206973206e6f7420746865206f776e6572604482015290519081900360640190fd5b6102de816102e1565b50565b6001600160a01b0381166103265760405162461bcd60e51b815260040180806020018281038252602681526020018061047b6026913960400191505060405180910390fd5b6033546040516001600160a01b038084169216907f8be0079c531659141344cd1fd0a4f28419497f9722a3daafe3b4186f6b6457e090600090a3603380546001600160a01b0319166001600160a01b0392909216919091179055565b600054610100900460ff168061039b575061039b610474565b806103a9575060005460ff16155b6103e45760405162461bcd60e51b815260040180806020018281038252602e8152602001806104a1602e913960400191505060405180910390fd5b600054610100900460ff1615801561040f576000805460ff1961ff0019909116610100171660011790555b603380546001600160a01b0319166001600160a01b0384811691909117918290556040519116906000907f8be0079c531659141344cd1fd0a4f28419497f9722a3daafe3b4186f6b6457e0908290a38015610470576000805461ff00191690555b5050565b303b159056fe4f776e61626c653a206e6577206f776e657220697320746865207a65726f2061646472657373436f6e747261637420696e7374616e63652068617320616c7265616479206265656e20696e697469616c697a6564a265627a7a7231582083504c6c9dd6e8b83b89e7db0cf55d30c5ad537059d2fab7c9a3aed6c4167e0b64736f6c63430005110032436f6e747261637420696e7374616e63652068617320616c7265616479206265656e20696e697469616c697a6564",
  "linkReferences": {},
  "deployedLinkReferences": {}
}