{
  "_format": "hh-sol-artifact-1",
  "contractName": "OwnableVerifier",
  "sourceName": "contracts/verifiers/OwnableVerifier.sol",
  "abi": [
    {
      "inputs": [
        {
          "internalType": "address",
          "name": "govAddress",
          "type": "address"
        }
      ],
      "payable": false,
      "stateMutability": "nonpayable",
      "type": "constructor"
    },
    {
      "anonymous": false,
      "inputs": [
        {
          "indexed": true,
          "internalType": "address",
          "name": "previousOwner",
          "type": "address"
        },
        {
          "indexed": true,
          "internalType": "address",
          "name": "newOwner",
          "type": "address"
        }
      ],
      "name": "OwnershipTransferred",
      "type": "event"
    },
    {
      "constant": false,
      "inputs": [
        {
          "internalType": "address",
          "name": "propAddr",
          "type": "address"
        }
      ],
      "name": "createProposal",
      "outputs": [],
      "payable": true,
      "stateMutability": "payable",
      "type": "function"
    },
    {
      "constant": true,
      "inputs": [],
      "name": "isOwner",
      "outputs": [
        {
          "internalType": "bool",
          "name": "",
          "type": "bool"
        }
      ],
      "payable": false,
      "stateMutability": "view",
      "type": "function"
    },
    {
      "constant": true,
      "inputs": [],
      "name": "owner",
      "outputs": [
        {
          "internalType": "address",
          "name": "",
          "type": "address"
        }
      ],
      "payable": false,
      "stateMutability": "view",
      "type": "function"
    },
    {
      "constant": false,
      "inputs": [],
      "name": "renounceOwnership",
      "outputs": [],
      "payable": false,
      "stateMutability": "nonpayable",
      "type": "function"
    },
    {
      "constant": false,
      "inputs": [
        {
          "internalType": "address",
          "name": "newOwner",
          "type": "address"
        }
      ],
      "name": "transferOwnership",
      "outputs": [],
      "payable": false,
      "stateMutability": "nonpayable",
      "type": "function"
    },
    {
      "constant": true,
      "inputs": [
        {
          "internalType": "uint256",
          "name": "",
          "type": "uint256"
        },
        {
          "internalType": "address",
          "name": "propAddr",
          "type": "address"
        }
      ],
      "name": "verifyProposalContract",
      "outputs": [
        {
          "internalType": "bool",
          "name": "",
          "type": "bool"
        }
      ],
      "payable": false,
      "stateMutability": "view",
      "type": "function"
    },
    {
      "constant": true,
      "inputs": [
        {
          "internalType": "uint256",
          "name": "",
          "type": "uint256"
        },
        {
          "internalType": "enum Proposal.ExecType",
          "name": "",
          "type": "uint8"
        },
        {
          "internalType": "uint256",
          "name": "",
          "type": "uint256"
        },
        {
          "internalType": "uint256",
          "name": "",
          "type": "uint256"
        },
        {
          "internalType": "uint256[]",
          "name": "",
          "type": "uint256[]"
        },
        {
          "internalType": "uint256",
          "name": "",
          "type": "uint256"
        },
        {
          "internalType": "uint256",
          "name": "",
          "type": "uint256"
        },
        {
          "internalType": "uint256",
          "name": "",
          "type": "uint256"
        }
      ],
      "name": "verifyProposalParams",
      "outputs": [
        {
          "internalType": "bool",
          "name": "",
          "type": "bool"
        }
      ],
      "payable": false,
      "stateMutability": "view",
      "type": "function"
    }
  ],
  "bytecode": "0x608060405234801561001057600080fd5b506040516108213803806108218339818101604052602081101561003357600080fd5b50516100493361006e602090811b6104f417901c565b606680546001600160a01b0319166001600160a01b039290921691909117905561016f565b600054610100900460ff168061009057506100906001600160e01b0361016916565b8061009e575060005460ff16155b6100d95760405162461bcd60e51b815260040180806020018281038252602e8152602001806107f3602e913960400191505060405180910390fd5b600054610100900460ff16158015610104576000805460ff1961ff0019909116610100171660011790555b603380546001600160a01b0319166001600160a01b0384811691909117918290556040519116906000907f8be0079c531659141344cd1fd0a4f28419497f9722a3daafe3b4186f6b6457e0908290a38015610165576000805461ff00191690555b5050565b303b1590565b6106758061017e6000396000f3fe6080604052600436106100705760003560e01c80638f32d59b1161004e5780638f32d59b146100e3578063d294ed281461010c578063f2fde38b14610145578063f3f4ef791461017857610070565b806307eecaf514610075578063715018a61461009d5780638da5cb5b146100b2575b600080fd5b61009b6004803603602081101561008b57600080fd5b50356001600160a01b031661021d565b005b3480156100a957600080fd5b5061009b610306565b3480156100be57600080fd5b506100c76103a9565b604080516001600160a01b039092168252519081900360200190f35b3480156100ef57600080fd5b506100f86103b8565b604080519115158252519081900360200190f35b34801561011857600080fd5b506100f86004803603604081101561012f57600080fd5b50803590602001356001600160a01b03166103c9565b34801561015157600080fd5b5061009b6004803603602081101561016857600080fd5b50356001600160a01b03166103df565b34801561018457600080fd5b506100f8600480360361010081101561019c57600080fd5b81359160ff6020820135169160408201359160608101359181019060a0810160808201356401000000008111156101d257600080fd5b8201836020820111156101e457600080fd5b8035906020019184602083028401116401000000008311171561020657600080fd5b919350915080359060208101359060400135610444565b6102256103b8565b610276576040805162461bcd60e51b815260206004820181905260248201527f4f776e61626c653a2063616c6c6572206973206e6f7420746865206f776e6572604482015290519081900360640190fd5b606780546001600160a01b0319166001600160a01b03838116918217909255606654604080516307eecaf560e01b81526004810193909352519216916307eecaf5913491602480830192600092919082900301818588803b1580156102da57600080fd5b505af11580156102ee573d6000803e3d6000fd5b5050606780546001600160a01b031916905550505050565b61030e6103b8565b61035f576040805162461bcd60e51b815260206004820181905260248201527f4f776e61626c653a2063616c6c6572206973206e6f7420746865206f776e6572604482015290519081900360640190fd5b6033546040516000916001600160a01b0316907f8be0079c531659141344cd1fd0a4f28419497f9722a3daafe3b4186f6b6457e0908390a3603380546001600160a01b0319169055565b6033546001600160a01b031690565b6033546001600160a01b0316331490565b6067546001600160a01b03908116911614919050565b6103e76103b8565b610438576040805162461bcd60e51b815260206004820181905260248201527f4f776e61626c653a2063616c6c6572206973206e6f7420746865206f776e6572604482015290519081900360640190fd5b61044181610453565b50565b60019998505050505050505050565b6001600160a01b0381166104985760405162461bcd60e51b81526004018080602001828103825260268152602001806105ed6026913960400191505060405180910390fd5b6033546040516001600160a01b038084169216907f8be0079c531659141344cd1fd0a4f28419497f9722a3daafe3b4186f6b6457e090600090a3603380546001600160a01b0319166001600160a01b0392909216919091179055565b600054610100900460ff168061050d575061050d6105e6565b8061051b575060005460ff16155b6105565760405162461bcd60e51b815260040180806020018281038252602e815260200180610613602e913960400191505060405180910390fd5b600054610100900460ff16158015610581576000805460ff1961ff0019909116610100171660011790555b603380546001600160a01b0319166001600160a01b0384811691909117918290556040519116906000907f8be0079c531659141344cd1fd0a4f28419497f9722a3daafe3b4186f6b6457e0908290a380156105e2576000805461ff00191690555b5050565b303b159056fe4f776e61626c653a206e6577206f776e657220697320746865207a65726f2061646472657373436f6e747261637420696e7374616e63652068617320616c7265616479206265656e20696e697469616c697a6564a265627a7a72315820eeb657eeef5e5ce32b7ebaf8e4d81b324b4df1861e1183f616bb2fb8cb52756164736f6c63430005110032436f6e747261637420696e7374616e63652068617320616c7265616479206265656e20696e697469616c697a6564",
  "linkReferences": {},
  "deployedLinkReferences": {}
}