{
  "_format": "hh-sol-artifact-1",
  "contractName": "Constants",
  "sourceName": "contracts/governance/Constants.sol",
  "abi": [
    {
      "constant": true,
      "inputs": [
        {
          "internalType": "bytes32",
          "name": "_bytes32",
          "type": "bytes32"
        }
      ],
      "name": "bytes32ToString",
      "outputs": [
        {
          "internalType": "string",
          "name": "",
          "type": "string"
        }
      ],
      "payable": false,
      "stateMutability": "pure",
      "type": "function"
    },
    {
      "constant": true,
      "inputs": [
        {
          "internalType": "uint256",
          "name": "totalWeight",
          "type": "uint256"
        },
        {
          "internalType": "uint256",
          "name": "minVotesRatio",
          "type": "uint256"
        }
      ],
      "name": "minVotesAbsolute",
      "outputs": [
        {
          "internalType": "uint256",
          "name": "",
          "type": "uint256"
        }
      ],
      "payable": false,
      "stateMutability": "pure",
      "type": "function"
    }
  ],
  "bytecode": "0x608060405234801561001057600080fd5b506101d1806100206000396000f3fe608060405234801561001057600080fd5b50600436106100365760003560e01c80631191e2701461003b5780639201de5514610070575b600080fd5b61005e6004803603604081101561005157600080fd5b5080359060200135610102565b60408051918252519081900360200190f35b61008d6004803603602081101561008657600080fd5b503561011e565b6040805160208082528351818301528351919283929083019185019080838360005b838110156100c75781810151838201526020016100af565b50505050905090810190601f1680156100f45780820380516001836020036101000a031916815260200191505b509250505060405180910390f35b600061010c610190565b8284028161011657fe5b049392505050565b60408051602080825281830190925260609182919060208201818038833901905050905060005b60208110156101895783816020811061015a57fe5b1a60f81b82828151811061016a57fe5b60200101906001600160f81b031916908160001a905350600101610145565b5092915050565b670de0b6b3a76400009056fea265627a7a72315820b20cf7f8213e1e04edc6aab064513cdf3ad93d18be1a08ea65b2d3243005927464736f6c63430005110032",
  "linkReferences": {},
  "deployedLinkReferences": {}
}