{
  "_format": "hh-sol-artifact-1",
  "contractName": "ExecLoggingProposal",
  "sourceName": "contracts/proposal/test/ExecLoggingProposal.sol",
  "abi": [
    {
      "inputs": [
        {
          "internalType": "string",
          "name": "v1",
          "type": "string"
        },
        {
          "internalType": "string",
          "name": "v2",
          "type": "string"
        },
        {
          "internalType": "bytes32[]",
          "name": "v3",
          "type": "bytes32[]"
        },
        {
          "internalType": "uint256",
          "name": "v4",
          "type": "uint256"
        },
        {
          "internalType": "uint256",
          "name": "v5",
          "type": "uint256"
        },
        {
          "internalType": "uint256",
          "name": "v6",
          "type": "uint256"
        },
        {
          "internalType": "uint256",
          "name": "v7",
          "type": "uint256"
        },
        {
          "internalType": "uint256",
          "name": "v8",
          "type": "uint256"
        },
        {
          "internalType": "address",
          "name": "v9",
          "type": "address"
        }
      ],
      "payable": false,
      "stateMutability": "nonpayable",
      "type": "constructor"
    },
    {
      "anonymous": false,
      "inputs": [
        {
          "indexed": true,
          "internalType": "address",
          "name": "previousOwner",
          "type": "address"
        },
        {
          "indexed": true,
          "internalType": "address",
          "name": "newOwner",
          "type": "address"
        }
      ],
      "name": "OwnershipTransferred",
      "type": "event"
    },
    {
      "constant": false,
      "inputs": [
        {
          "internalType": "uint256",
          "name": "myID",
          "type": "uint256"
        },
        {
          "internalType": "address",
          "name": "govAddress",
          "type": "address"
        }
      ],
      "name": "cancel",
      "outputs": [],
      "payable": false,
      "stateMutability": "nonpayable",
      "type": "function"
    },
    {
      "constant": true,
      "inputs": [],
      "name": "description",
      "outputs": [
        {
          "internalType": "string",
          "name": "",
          "type": "string"
        }
      ],
      "payable": false,
      "stateMutability": "view",
      "type": "function"
    },
    {
      "constant": true,
      "inputs": [],
      "name": "executable",
      "outputs": [
        {
          "internalType": "enum Proposal.ExecType",
          "name": "",
          "type": "uint8"
        }
      ],
      "payable": false,
      "stateMutability": "view",
      "type": "function"
    },
    {
      "constant": false,
      "inputs": [
        {
          "internalType": "address",
          "name": "_executedAs",
          "type": "address"
        },
        {
          "internalType": "address",
          "name": "_executedMsgSender",
          "type": "address"
        },
        {
          "internalType": "uint256",
          "name": "optionID",
          "type": "uint256"
        }
      ],
      "name": "executeNonDelegateCall",
      "outputs": [],
      "payable": false,
      "stateMutability": "nonpayable",
      "type": "function"
    },
    {
      "constant": false,
      "inputs": [
        {
          "internalType": "uint256",
          "name": "optionID",
          "type": "uint256"
        }
      ],
      "name": "execute_call",
      "outputs": [],
      "payable": false,
      "stateMutability": "nonpayable",
      "type": "function"
    },
    {
      "constant": false,
      "inputs": [
        {
          "internalType": "address",
          "name": "selfAddr",
          "type": "address"
        },
        {
          "internalType": "uint256",
          "name": "optionID",
          "type": "uint256"
        }
      ],
      "name": "execute_delegatecall",
      "outputs": [],
      "payable": false,
      "stateMutability": "nonpayable",
      "type": "function"
    },
    {
      "constant": true,
      "inputs": [],
      "name": "executedAs",
      "outputs": [
        {
          "internalType": "address",
          "name": "",
          "type": "address"
        }
      ],
      "payable": false,
      "stateMutability": "view",
      "type": "function"
    },
    {
      "constant": true,
      "inputs": [],
      "name": "executedCounter",
      "outputs": [
        {
          "internalType": "uint256",
          "name": "",
          "type": "uint256"
        }
      ],
      "payable": false,
      "stateMutability": "view",
      "type": "function"
    },
    {
      "constant": true,
      "inputs": [],
      "name": "executedMsgSender",
      "outputs": [
        {
          "internalType": "address",
          "name": "",
          "type": "address"
        }
      ],
      "payable": false,
      "stateMutability": "view",
      "type": "function"
    },
    {
      "constant": true,
      "inputs": [],
      "name": "executedOption",
      "outputs": [
        {
          "internalType": "uint256",
          "name": "",
          "type": "uint256"
        }
      ],
      "payable": false,
      "stateMutability": "view",
      "type": "function"
    },
    {
      "constant": true,
      "inputs": [],
      "name": "isOwner",
      "outputs": [
        {
          "internalType": "bool",
          "name": "",
          "type": "bool"
        }
      ],
      "payable": false,
      "stateMutability": "view",
      "type": "function"
    },
    {
      "constant": true,
      "inputs": [],
      "name": "minAgreement",
      "outputs": [
        {
          "internalType": "uint256",
          "name": "",
          "type": "uint256"
        }
      ],
      "payable": false,
      "stateMutability": "view",
      "type": "function"
    },
    {
      "constant": true,
      "inputs": [],
      "name": "minVotes",
      "outputs": [
        {
          "internalType": "uint256",
          "name": "",
          "type": "uint256"
        }
      ],
      "payable": false,
      "stateMutability": "view",
      "type": "function"
    },
    {
      "constant": true,
      "inputs": [],
      "name": "name",
      "outputs": [
        {
          "internalType": "string",
          "name": "",
          "type": "string"
        }
      ],
      "payable": false,
      "stateMutability": "view",
      "type": "function"
    },
    {
      "constant": true,
      "inputs": [],
      "name": "opinionScales",
      "outputs": [
        {
          "internalType": "uint256[]",
          "name": "",
          "type": "uint256[]"
        }
      ],
      "payable": false,
      "stateMutability": "view",
      "type": "function"
    },
    {
      "constant": true,
      "inputs": [],
      "name": "options",
      "outputs": [
        {
          "internalType": "bytes32[]",
          "name": "",
          "type": "bytes32[]"
        }
      ],
      "payable": false,
      "stateMutability": "view",
      "type": "function"
    },
    {
      "constant": true,
      "inputs": [],
      "name": "owner",
      "outputs": [
        {
          "internalType": "address",
          "name": "",
          "type": "address"
        }
      ],
      "payable": false,
      "stateMutability": "view",
      "type": "function"
    },
    {
      "constant": true,
      "inputs": [],
      "name": "pType",
      "outputs": [
        {
          "internalType": "uint256",
          "name": "",
          "type": "uint256"
        }
      ],
      "payable": false,
      "stateMutability": "view",
      "type": "function"
    },
    {
      "constant": false,
      "inputs": [],
      "name": "renounceOwnership",
      "outputs": [],
      "payable": false,
      "stateMutability": "nonpayable",
      "type": "function"
    },
    {
      "constant": false,
      "inputs": [
        {
          "internalType": "enum Proposal.ExecType",
          "name": "__exec",
          "type": "uint8"
        }
      ],
      "name": "setExecutable",
      "outputs": [],
      "payable": false,
      "stateMutability": "nonpayable",
      "type": "function"
    },
    {
      "constant": false,
      "inputs": [
        {
          "internalType": "uint256[]",
          "name": "v",
          "type": "uint256[]"
        }
      ],
      "name": "setOpinionScales",
      "outputs": [],
      "payable": false,
      "stateMutability": "nonpayable",
      "type": "function"
    },
    {
      "constant": false,
      "inputs": [
        {
          "internalType": "address",
          "name": "newOwner",
          "type": "address"
        }
      ],
      "name": "transferOwnership",
      "outputs": [],
      "payable": false,
      "stateMutability": "nonpayable",
      "type": "function"
    },
    {
      "constant": true,
      "inputs": [
        {
          "internalType": "address",
          "name": "verifier",
          "type": "address"
        }
      ],
      "name": "verifyProposalParams",
      "outputs": [
        {
          "internalType": "bool",
          "name": "",
          "type": "bool"
        }
      ],
      "payable": false,
      "stateMutability": "view",
      "type": "function"
    },
    {
      "constant": true,
      "inputs": [],
      "name": "votingMaxEndTime",
      "outputs": [
        {
          "internalType": "uint256",
          "name": "",
          "type": "uint256"
        }
      ],
      "payable": false,
      "stateMutability": "view",
      "type": "function"
    },
    {
      "constant": true,
      "inputs": [],
      "name": "votingMinEndTime",
      "outputs": [
        {
          "internalType": "uint256",
          "name": "",
          "type": "uint256"
        }
      ],
      "payable": false,
      "stateMutability": "view",
      "type": "function"
    },
    {
      "constant": true,
      "inputs": [],
      "name": "votingStartTime",
      "outputs": [
        {
          "internalType": "uint256",
          "name": "",
          "type": "uint256"
        }
      ],
      "payable": false,
      "stateMutability": "view",
      "type": "function"
    }
  ],
  "bytecode": "0x60806040523480156200001157600080fd5b506040516200158f3803806200158f83398181016040526101208110156200003857600080fd5b81019080805160405193929190846401000000008211156200005957600080fd5b9083019060208201858111156200006f57600080fd5b82516401000000008111828201881017156200008a57600080fd5b82525081516020918201929091019080838360005b83811015620000b95781810151838201526020016200009f565b50505050905090810190601f168015620000e75780820380516001836020036101000a031916815260200191505b50604052602001805160405193929190846401000000008211156200010b57600080fd5b9083019060208201858111156200012157600080fd5b82516401000000008111828201881017156200013c57600080fd5b82525081516020918201929091019080838360005b838110156200016b57818101518382015260200162000151565b50505050905090810190601f168015620001995780820380516001836020036101000a031916815260200191505b5060405260200180516040519392919084640100000000821115620001bd57600080fd5b908301906020820185811115620001d357600080fd5b8251866020820283011164010000000082111715620001f157600080fd5b82525081516020918201928201910280838360005b838110156200022057818101518382015260200162000206565b50505050919091016040908152602083810151918401516060850151608086015160a087015160c0909701519498509196509490935091908990899089908990899089908990899089906200028090339062000bb9620003a4821b17901c565b8851620002959060009060208c0190620006f6565b508751620002ab9060019060208b0190620006f6565b508651620002c19060029060208a01906200077b565b50600386815560048681556040805160a081018252600081526001602082015260029181019190915260608101929092526080820152620003069060059081620007b8565b506006849055600783905560088290556001600160a01b038116156200038c576200033a816001600160e01b03620004a716565b6200038c576040805162461bcd60e51b815260206004820152601360248201527f6661696c656420766572696669636174696f6e00000000000000000000000000604482015290519081900360640190fd5b50505050505050505050505050505050505062000818565b600954610100900460ff1680620003c95750620003c96001600160e01b036200063b16565b80620003d8575060095460ff16155b620004155760405162461bcd60e51b815260040180806020018281038252602e81526020018062001561602e913960400191505060405180910390fd5b600954610100900460ff1615801562000441576009805460ff1961ff0019909116610100171660011790555b603c80546001600160a01b0319166001600160a01b0384811691909117918290556040519116906000907f8be0079c531659141344cd1fd0a4f28419497f9722a3daafe3b4186f6b6457e0908290a38015620004a3576009805461ff00191690555b5050565b6000816001600160a01b03811663f3f4ef79620004cc6001600160e01b036200064216565b620004df6001600160e01b036200064716565b620004f26001600160e01b036200065016565b620005056001600160e01b036200065616565b620005186001600160e01b036200065c16565b6200052b6001600160e01b03620006b616565b6200053e6001600160e01b03620006be16565b620005516001600160e01b03620006dd16565b6040518963ffffffff1660e01b8152600401808981526020018860028111156200057757fe5b60ff16815260200187815260200186815260200180602001858152602001848152602001838152602001828103825286818151815260200191508051906020019060200280838360005b83811015620005db578181015183820152602001620005c1565b50505050905001995050505050505050505060206040518083038186803b1580156200060657600080fd5b505afa1580156200061b573d6000803e3d6000fd5b505050506040513d60208110156200063257600080fd5b50519392505050565b303b155b90565b600f90565b606f5460ff1690565b60035490565b60045490565b60606005805480602002602001604051908101604052809291908181526020018280548015620006ac57602002820191906000526020600020905b81548152602001906001019080831162000697575b5050505050905090565b600654420190565b600754600090620006d76001600160e01b03620006b616565b01905090565b600854600090620006d76001600160e01b03620006b616565b828054600181600116156101000203166002900490600052602060002090601f016020900481019282601f106200073957805160ff191683800117855562000769565b8280016001018555821562000769579182015b82811115620007695782518255916020019190600101906200074c565b5062000777929150620007fb565b5090565b828054828255906000526020600020908101928215620007695791602002820182811115620007695782518255916020019190600101906200074c565b82805482825590600052602060002090810192821562000769579160200282015b8281111562000769578251829060ff16905591602001919060010190620007d9565b6200063f91905b8082111562000777576000815560010162000802565b610d3980620008286000396000f3fe608060405234801561001057600080fd5b506004361061018e5760003560e01c80638ba3dbb7116100de578063aa3daba911610097578063bf405d6c11610071578063bf405d6c146104ae578063cb00e7d3146104b6578063ef0c3978146104dc578063f2fde38b146104e45761018e565b8063aa3daba914610444578063b3fd87d214610470578063b71cbc08146104a65761018e565b80638ba3dbb7146103495780638da5cb5b1461036d5780638f32d59b146103755780639b3a8a0714610391578063a61e393a14610399578063a84b9f40146103a15761018e565b80633cc228fd1161014b5780636eb067a0116101255780636eb067a0146103295780636f24f8a114610331578063715018a6146103395780637284e416146103415761018e565b80633cc228fd146102d857806357d682c4146102e057806363012d011461030c5761018e565b806306fdde03146101935780631069143a1461021057806316131a18146102685780632019a60814610294578063216b9116146102ae57806337952c0a146102b6575b600080fd5b61019b61050a565b6040805160208082528351818301528351919283929083019185019080838360005b838110156101d55781810151838201526020016101bd565b50505050905090810190601f1680156102025780820380516001836020036101000a031916815260200191505b509250505060405180910390f35b6102186105a1565b60408051602080825283518183015283519192839290830191858101910280838360005b8381101561025457818101518382015260200161023c565b505050509050019250505060405180910390f35b6102706105f8565b6040518082600281111561028057fe5b60ff16815260200191505060405180910390f35b61029c610601565b60408051918252519081900360200190f35b61029c610609565b6102d6600480360360208110156102cc57600080fd5b503560ff1661060e565b005b61029c61062f565b6102d6600480360360408110156102f657600080fd5b50803590602001356001600160a01b0316610635565b6102d66004803603602081101561032257600080fd5b503561069d565b61029c6106ab565b6102186106b1565b6102d6610707565b61019b6107aa565b61035161080a565b604080516001600160a01b039092168252519081900360200190f35b610351610819565b61037d610828565b604080519115158252519081900360200190f35b61029c610839565b61029c61084c565b6102d6600480360360208110156103b757600080fd5b8101906020810181356401000000008111156103d257600080fd5b8201836020820111156103e457600080fd5b8035906020019184602083028401116401000000008311171561040657600080fd5b919080806020026020016040519081016040528093929190818152602001838360200280828437600092019190915250929550610859945050505050565b6102d66004803603604081101561045a57600080fd5b506001600160a01b038135169060200135610870565b6102d66004803603606081101561048657600080fd5b506001600160a01b038135811691602081013590911690604001356108c7565b61029c610905565b61029c61090b565b61037d600480360360208110156104cc57600080fd5b50356001600160a01b0316610911565b610351610a47565b6102d6600480360360208110156104fa57600080fd5b50356001600160a01b0316610a56565b60008054604080516020601f60026000196101006001881615020190951694909404938401819004810282018101909252828152606093909290918301828280156105965780601f1061056b57610100808354040283529160200191610596565b820191906000526020600020905b81548152906001019060200180831161057957829003601f168201915b505050505090505b90565b6060600280548060200260200160405190810160405280929190818152602001828054801561059657602002820191906000526020600020905b8154815260200190600101908083116105db575050505050905090565b606f5460ff1690565b600654420190565b600f90565b606f805482919060ff1916600183600281111561062757fe5b021790555050565b60035490565b6000819050806001600160a01b031663e0a8f6f5846040518263ffffffff1660e01b815260040180828152602001915050600060405180830381600087803b15801561068057600080fd5b505af1158015610694573d6000803e3d6000fd5b50505050505050565b6106a83033836108c7565b50565b60045490565b6060600580548060200260200160405190810160405280929190818152602001828054801561059657602002820191906000526020600020908154815260200190600101908083116105db575050505050905090565b61070f610828565b610760576040805162461bcd60e51b815260206004820181905260248201527f4f776e61626c653a2063616c6c6572206973206e6f7420746865206f776e6572604482015290519081900360640190fd5b603c546040516000916001600160a01b0316907f8be0079c531659141344cd1fd0a4f28419497f9722a3daafe3b4186f6b6457e0908390a3603c80546001600160a01b0319169055565b60018054604080516020601f600260001961010087891615020190951694909404938401819004810282018101909252828152606093909290918301828280156105965780601f1061056b57610100808354040283529160200191610596565b6071546001600160a01b031681565b603c546001600160a01b031690565b603c546001600160a01b0316331490565b6000600754610846610601565b01905090565b6000600854610846610601565b805161086c906005906020840190610b54565b5050565b604080516359fec3e960e11b815230600482015233602482015260448101839052905183916001600160a01b0383169163b3fd87d29160648082019260009290919082900301818387803b15801561068057600080fd5b607280546001600160a01b039485166001600160a01b0319918216179091556071805493909416921691909117909155607080546001019055607355565b60705481565b60735481565b6000816001600160a01b03811663f3f4ef7961092b610609565b6109336105f8565b61093b61062f565b6109436106ab565b61094b6106b1565b610953610601565b61095b610839565b61096361084c565b6040518963ffffffff1660e01b81526004018089815260200188600281111561098857fe5b60ff16815260200187815260200186815260200180602001858152602001848152602001838152602001828103825286818151815260200191508051906020019060200280838360005b838110156109ea5781810151838201526020016109d2565b50505050905001995050505050505050505060206040518083038186803b158015610a1457600080fd5b505afa158015610a28573d6000803e3d6000fd5b505050506040513d6020811015610a3e57600080fd5b50519392505050565b6072546001600160a01b031681565b610a5e610828565b610aaf576040805162461bcd60e51b815260206004820181905260248201527f4f776e61626c653a2063616c6c6572206973206e6f7420746865206f776e6572604482015290519081900360640190fd5b6106a8816001600160a01b038116610af85760405162461bcd60e51b8152600401808060200182810382526026815260200180610cb16026913960400191505060405180910390fd5b603c546040516001600160a01b038084169216907f8be0079c531659141344cd1fd0a4f28419497f9722a3daafe3b4186f6b6457e090600090a3603c80546001600160a01b0319166001600160a01b0392909216919091179055565b828054828255906000526020600020908101928215610b8f579160200282015b82811115610b8f578251825591602001919060010190610b74565b50610b9b929150610b9f565b5090565b61059e91905b80821115610b9b5760008155600101610ba5565b600954610100900460ff1680610bd25750610bd2610caa565b80610be0575060095460ff16155b610c1b5760405162461bcd60e51b815260040180806020018281038252602e815260200180610cd7602e913960400191505060405180910390fd5b600954610100900460ff16158015610c46576009805460ff1961ff0019909116610100171660011790555b603c80546001600160a01b0319166001600160a01b0384811691909117918290556040519116906000907f8be0079c531659141344cd1fd0a4f28419497f9722a3daafe3b4186f6b6457e0908290a3801561086c576009805461ff00191690555050565b303b159056fe4f776e61626c653a206e6577206f776e657220697320746865207a65726f2061646472657373436f6e747261637420696e7374616e63652068617320616c7265616479206265656e20696e697469616c697a6564a265627a7a72315820acaeddfb0e607a1506324f660eee1ddfd30431d66ba63215f96a3c171ee2209e64736f6c63430005110032436f6e747261637420696e7374616e63652068617320616c7265616479206265656e20696e697469616c697a6564",
  "linkReferences": {},
  "deployedLinkReferences": {}
}