{
  "_format": "hh-sol-artifact-1",
  "contractName": "RelayProxy",
  "sourceName": "contracts/adapters/RelayProxy.sol",
  "abi": [
    {
      "inputs": [
        {
          "internalType": "address",
          "name": "_owner",
          "type": "address"
        },
        {
          "internalType": "address",
          "name": "_destination",
          "type": "address"
        }
      ],
      "payable": false,
      "stateMutability": "nonpayable",
      "type": "constructor"
    },
    {
      "anonymous": false,
      "inputs": [
        {
          "indexed": true,
          "internalType": "address",
          "name": "previousRelay",
          "type": "address"
        },
        {
          "indexed": true,
          "internalType": "address",
          "name": "newRelay",
          "type": "address"
        }
      ],
      "name": "DestinationChanged",
      "type": "event"
    },
    {
      "anonymous": false,
      "inputs": [
        {
          "indexed": true,
          "internalType": "address",
          "name": "previousOwner",
          "type": "address"
        },
        {
          "indexed": true,
          "internalType": "address",
          "name": "newOwner",
          "type": "address"
        }
      ],
      "name": "OwnershipTransferred",
      "type": "event"
    },
    {
      "payable": true,
      "stateMutability": "payable",
      "type": "fallback"
    },
    {
      "constant": true,
      "inputs": [],
      "name": "__destination",
      "outputs": [
        {
          "internalType": "address",
          "name": "",
          "type": "address"
        }
      ],
      "payable": false,
      "stateMutability": "view",
      "type": "function"
    },
    {
      "constant": true,
      "inputs": [],
      "name": "__owner",
      "outputs": [
        {
          "internalType": "address",
          "name": "",
          "type": "address"
        }
      ],
      "payable": false,
      "stateMutability": "view",
      "type": "function"
    },
    {
      "constant": false,
      "inputs": [
        {
          "internalType": "address",
          "name": "newDestination",
          "type": "address"
        }
      ],
      "name": "__setDestination",
      "outputs": [],
      "payable": false,
      "stateMutability": "nonpayable",
      "type": "function"
    },
    {
      "constant": false,
      "inputs": [
        {
          "internalType": "address",
          "name": "newOwner",
          "type": "address"
        }
      ],
      "name": "__transferOwnership",
      "outputs": [],
      "payable": false,
      "stateMutability": "nonpayable",
      "type": "function"
    }
  ],
  "bytecode": "0x608060405234801561001057600080fd5b5060405161049a38038061049a8339818101604052604081101561003357600080fd5b508051602090910151600180546001600160a01b039384166001600160a01b031991821617909155600080549390921692169190911790556104208061007a6000396000f3fe60806040526004361061003f5760003560e01c80630c796ddc146100af57806313effa0f146100e2578063615d27a91461011357806380d0d48114610146575b61004761015b565b610098576040805162461bcd60e51b815260206004820152601e60248201527f52656c61793a2063616c6c6572206973206e6f7420746865206f776e65720000604482015290519081900360640190fd5b6000546100ad906001600160a01b031661016c565b005b3480156100bb57600080fd5b506100ad600480360360208110156100d257600080fd5b50356001600160a01b0316610191565b3480156100ee57600080fd5b506100f761028a565b604080516001600160a01b039092168252519081900360200190f35b34801561011f57600080fd5b506100ad6004803603602081101561013657600080fd5b50356001600160a01b0316610299565b34801561015257600080fd5b506100f7610393565b6001546001600160a01b0316331490565b366000803760008036600034855af13d6000803e80801561018c573d6000f35b3d6000fd5b61019961015b565b6101ea576040805162461bcd60e51b815260206004820152601e60248201527f52656c61793a2063616c6c6572206973206e6f7420746865206f776e65720000604482015290519081900360640190fd5b6001600160a01b03811661022f5760405162461bcd60e51b81526004018080602001828103825260258152602001806103c76025913960400191505060405180910390fd5b600080546040516001600160a01b03808516939216917f8be0079c531659141344cd1fd0a4f28419497f9722a3daafe3b4186f6b6457e091a3600080546001600160a01b0319166001600160a01b0392909216919091179055565b6001546001600160a01b031681565b6102a161015b565b6102f2576040805162461bcd60e51b815260206004820152601e60248201527f52656c61793a2063616c6c6572206973206e6f7420746865206f776e65720000604482015290519081900360640190fd5b6001600160a01b0381166103375760405162461bcd60e51b81526004018080602001828103825260248152602001806103a36024913960400191505060405180910390fd5b6001546040516001600160a01b038084169216907f8be0079c531659141344cd1fd0a4f28419497f9722a3daafe3b4186f6b6457e090600090a3600180546001600160a01b0319166001600160a01b0392909216919091179055565b6000546001600160a01b03168156fe52656c61793a206e6577206f776e657220697320746865207a65726f20616464726573736e6577206f776e6572206164647265737320697320746865207a65726f2061646472657373a265627a7a72315820903fbd63a8207f21c520265f3af8eab134fe1c8177106cea127026182f4af31764736f6c63430005110032",
  "linkReferences": {},
  "deployedLinkReferences": {}
}