{
  "_format": "hh-sol-artifact-1",
  "contractName": "SFCToGovernable",
  "sourceName": "contracts/adapters/SFCToGovernable.sol",
  "abi": [
    {
      "constant": true,
      "inputs": [
        {
          "internalType": "address",
          "name": "addr",
          "type": "address"
        }
      ],
      "name": "getReceivedWeight",
      "outputs": [
        {
          "internalType": "uint256",
          "name": "",
          "type": "uint256"
        }
      ],
      "payable": false,
      "stateMutability": "view",
      "type": "function"
    },
    {
      "constant": true,
      "inputs": [],
      "name": "getTotalWeight",
      "outputs": [
        {
          "internalType": "uint256",
          "name": "",
          "type": "uint256"
        }
      ],
      "payable": false,
      "stateMutability": "view",
      "type": "function"
    },
    {
      "constant": true,
      "inputs": [
        {
          "internalType": "address",
          "name": "from",
          "type": "address"
        },
        {
          "internalType": "address",
          "name": "to",
          "type": "address"
        }
      ],
      "name": "getWeight",
      "outputs": [
        {
          "internalType": "uint256",
          "name": "",
          "type": "uint256"
        }
      ],
      "payable": false,
      "stateMutability": "view",
      "type": "function"
    }
  ],
  "bytecode": "0x6080604052600080546001600160a01b03191673fc00face0000000000000000000000000000000017905534801561003657600080fd5b506105a3806100466000396000f3fe608060405234801561001057600080fd5b50600436106100415760003560e01c806306aba0e1146100465780636833935714610060578063a481732114610086575b600080fd5b61004e6100b4565b60408051918252519081900360200190f35b61004e6004803603602081101561007657600080fd5b50356001600160a01b03166101a6565b61004e6004803603604081101561009c57600080fd5b506001600160a01b0381358116916020013516610323565b60008060009054906101000a90046001600160a01b03166001600160a01b03166330fa99296040518163ffffffff1660e01b815260040160206040518083038186803b15801561010357600080fd5b505afa158015610117573d6000803e3d6000fd5b505050506040513d602081101561012d57600080fd5b505160005460408051631e818bff60e11b815290516001600160a01b0390921691633d0317fe91600480820192602092909190829003018186803b15801561017457600080fd5b505afa158015610188573d6000803e3d6000fd5b505050506040513d602081101561019e57600080fd5b505101905090565b60008054604080516363321e2760e01b81526001600160a01b0385811660048301529151849392909216916363321e2791602480820192602092909190829003018186803b1580156101f757600080fd5b505afa15801561020b573d6000803e3d6000fd5b505050506040513d602081101561022157600080fd5b505190508061023457600091505061031e565b600080546040805163fd5e6dd160e01b815260048101859052905183928392839283926001600160a01b03169163fd5e6dd191602480830192610140929190829003018186803b15801561028757600080fd5b505afa15801561029b573d6000803e3d6000fd5b505050506040513d6101408110156102b257600080fd5b508051606082015160a083015160e08401516101209094015192985090965094509092509050831515806102e557508415155b806103025750876001600160a01b0316816001600160a01b031614155b15610316576000965050505050505061031e565b500193505050505b919050565b60008054604080516363321e2760e01b81526001600160a01b0385811660048301529151849392909216916363321e2791602480820192602092909190829003018186803b15801561037457600080fd5b505afa158015610388573d6000803e3d6000fd5b505050506040513d602081101561039e57600080fd5b50519050806103b1576000915050610568565b600080546040805163fd5e6dd160e01b81526004810185905290518392839283926001600160a01b039092169163fd5e6dd19160248082019261014092909190829003018186803b15801561040557600080fd5b505afa158015610419573d6000803e3d6000fd5b505050506040513d61014081101561043057600080fd5b508051606082015160a083015161012090930151919650945090925090508215158061045b57508315155b806104785750866001600160a01b0316816001600160a01b031614155b1561048b57600095505050505050610568565b866001600160a01b0316886001600160a01b031614156104b15750935061056892505050565b600080546040805163223fae0960e01b81526001600160a01b038c81166004830152602482018a905291518493929092169163223fae099160448082019260e092909190829003018186803b15801561050957600080fd5b505afa15801561051d573d6000803e3d6000fd5b505050506040513d60e081101561053357600080fd5b5060408101516080909101519092509050811561055a576000975050505050505050610568565b965061056895505050505050565b9291505056fea265627a7a72315820a391aa9532750089a9c62bd791e9acb379d754a49a2b6bcb0df996a2ef24b6c564736f6c63430005110032",
  "linkReferences": {},
  "deployedLinkReferences": {}
}