{
  "_format": "hh-sol-artifact-1",
  "contractName": "PlainTextProposal",
  "sourceName": "contracts/proposal/PlainTextProposal.sol",
  "abi": [
    {
      "inputs": [
        {
          "internalType": "string",
          "name": "__name",
          "type": "string"
        },
        {
          "internalType": "string",
          "name": "__description",
          "type": "string"
        },
        {
          "internalType": "bytes32[]",
          "name": "__options",
          "type": "bytes32[]"
        },
        {
          "internalType": "uint256",
          "name": "__minVotes",
          "type": "uint256"
        },
        {
          "internalType": "uint256",
          "name": "__minAgreement",
          "type": "uint256"
        },
        {
          "internalType": "uint256",
          "name": "__start",
          "type": "uint256"
        },
        {
          "internalType": "uint256",
          "name": "__minEnd",
          "type": "uint256"
        },
        {
          "internalType": "uint256",
          "name": "__maxEnd",
          "type": "uint256"
        },
        {
          "internalType": "address",
          "name": "verifier",
          "type": "address"
        }
      ],
      "payable": false,
      "stateMutability": "nonpayable",
      "type": "constructor"
    },
    {
      "anonymous": false,
      "inputs": [
        {
          "indexed": true,
          "internalType": "address",
          "name": "previousOwner",
          "type": "address"
        },
        {
          "indexed": true,
          "internalType": "address",
          "name": "newOwner",
          "type": "address"
        }
      ],
      "name": "OwnershipTransferred",
      "type": "event"
    },
    {
      "constant": false,
      "inputs": [
        {
          "internalType": "uint256",
          "name": "myID",
          "type": "uint256"
        },
        {
          "internalType": "address",
          "name": "govAddress",
          "type": "address"
        }
      ],
      "name": "cancel",
      "outputs": [],
      "payable": false,
      "stateMutability": "nonpayable",
      "type": "function"
    },
    {
      "constant": true,
      "inputs": [],
      "name": "description",
      "outputs": [
        {
          "internalType": "string",
          "name": "",
          "type": "string"
        }
      ],
      "payable": false,
      "stateMutability": "view",
      "type": "function"
    },
    {
      "constant": true,
      "inputs": [],
      "name": "executable",
      "outputs": [
        {
          "internalType": "enum Proposal.ExecType",
          "name": "",
          "type": "uint8"
        }
      ],
      "payable": false,
      "stateMutability": "view",
      "type": "function"
    },
    {
      "constant": false,
      "inputs": [
        {
          "internalType": "uint256",
          "name": "",
          "type": "uint256"
        }
      ],
      "name": "execute_call",
      "outputs": [],
      "payable": false,
      "stateMutability": "nonpayable",
      "type": "function"
    },
    {
      "constant": false,
      "inputs": [
        {
          "internalType": "address",
          "name": "",
          "type": "address"
        },
        {
          "internalType": "uint256",
          "name": "",
          "type": "uint256"
        }
      ],
      "name": "execute_delegatecall",
      "outputs": [],
      "payable": false,
      "stateMutability": "nonpayable",
      "type": "function"
    },
    {
      "constant": true,
      "inputs": [],
      "name": "isOwner",
      "outputs": [
        {
          "internalType": "bool",
          "name": "",
          "type": "bool"
        }
      ],
      "payable": false,
      "stateMutability": "view",
      "type": "function"
    },
    {
      "constant": true,
      "inputs": [],
      "name": "minAgreement",
      "outputs": [
        {
          "internalType": "uint256",
          "name": "",
          "type": "uint256"
        }
      ],
      "payable": false,
      "stateMutability": "view",
      "type": "function"
    },
    {
      "constant": true,
      "inputs": [],
      "name": "minVotes",
      "outputs": [
        {
          "internalType": "uint256",
          "name": "",
          "type": "uint256"
        }
      ],
      "payable": false,
      "stateMutability": "view",
      "type": "function"
    },
    {
      "constant": true,
      "inputs": [],
      "name": "name",
      "outputs": [
        {
          "internalType": "string",
          "name": "",
          "type": "string"
        }
      ],
      "payable": false,
      "stateMutability": "view",
      "type": "function"
    },
    {
      "constant": true,
      "inputs": [],
      "name": "opinionScales",
      "outputs": [
        {
          "internalType": "uint256[]",
          "name": "",
          "type": "uint256[]"
        }
      ],
      "payable": false,
      "stateMutability": "view",
      "type": "function"
    },
    {
      "constant": true,
      "inputs": [],
      "name": "options",
      "outputs": [
        {
          "internalType": "bytes32[]",
          "name": "",
          "type": "bytes32[]"
        }
      ],
      "payable": false,
      "stateMutability": "view",
      "type": "function"
    },
    {
      "constant": true,
      "inputs": [],
      "name": "owner",
      "outputs": [
        {
          "internalType": "address",
          "name": "",
          "type": "address"
        }
      ],
      "payable": false,
      "stateMutability": "view",
      "type": "function"
    },
    {
      "constant": true,
      "inputs": [],
      "name": "pType",
      "outputs": [
        {
          "internalType": "uint256",
          "name": "",
          "type": "uint256"
        }
      ],
      "payable": false,
      "stateMutability": "view",
      "type": "function"
    },
    {
      "constant": false,
      "inputs": [],
      "name": "renounceOwnership",
      "outputs": [],
      "payable": false,
      "stateMutability": "nonpayable",
      "type": "function"
    },
    {
      "constant": false,
      "inputs": [
        {
          "internalType": "address",
          "name": "newOwner",
          "type": "address"
        }
      ],
      "name": "transferOwnership",
      "outputs": [],
      "payable": false,
      "stateMutability": "nonpayable",
      "type": "function"
    },
    {
      "constant": true,
      "inputs": [
        {
          "internalType": "address",
          "name": "verifier",
          "type": "address"
        }
      ],
      "name": "verifyProposalParams",
      "outputs": [
        {
          "internalType": "bool",
          "name": "",
          "type": "bool"
        }
      ],
      "payable": false,
      "stateMutability": "view",
      "type": "function"
    },
    {
      "constant": true,
      "inputs": [],
      "name": "votingMaxEndTime",
      "outputs": [
        {
          "internalType": "uint256",
          "name": "",
          "type": "uint256"
        }
      ],
      "payable": false,
      "stateMutability": "view",
      "type": "function"
    },
    {
      "constant": true,
      "inputs": [],
      "name": "votingMinEndTime",
      "outputs": [
        {
          "internalType": "uint256",
          "name": "",
          "type": "uint256"
        }
      ],
      "payable": false,
      "stateMutability": "view",
      "type": "function"
    },
    {
      "constant": true,
      "inputs": [],
      "name": "votingStartTime",
      "outputs": [
        {
          "internalType": "uint256",
          "name": "",
          "type": "uint256"
        }
      ],
      "payable": false,
      "stateMutability": "view",
      "type": "function"
    }
  ],
  "bytecode": "0x60806040523480156200001157600080fd5b506040516200136b3803806200136b83398181016040526101208110156200003857600080fd5b81019080805160405193929190846401000000008211156200005957600080fd5b9083019060208201858111156200006f57600080fd5b82516401000000008111828201881017156200008a57600080fd5b82525081516020918201929091019080838360005b83811015620000b95781810151838201526020016200009f565b50505050905090810190601f168015620000e75780820380516001836020036101000a031916815260200191505b50604052602001805160405193929190846401000000008211156200010b57600080fd5b9083019060208201858111156200012157600080fd5b82516401000000008111828201881017156200013c57600080fd5b82525081516020918201929091019080838360005b838110156200016b57818101518382015260200162000151565b50505050905090810190601f168015620001995780820380516001836020036101000a031916815260200191505b5060405260200180516040519392919084640100000000821115620001bd57600080fd5b908301906020820185811115620001d357600080fd5b8251866020820283011164010000000082111715620001f157600080fd5b82525081516020918201928201910280838360005b838110156200022057818101518382015260200162000206565b50505050919091016040908152602083810151918401516060850151608086015160a087015160c0909701519498509196509490935091906200026e903390620009b462000389821b17901c565b8851620002839060009060208c0190620006d7565b508751620002999060019060208b0190620006d7565b508651620002af9060029060208a01906200075c565b50600386815560048681556040805160a081018252600081526001602082015260029181019190915260608101929092526080820152620002f4906005908162000799565b506006849055600783905560088290556001600160a01b038116156200037a5762000328816001600160e01b036200048c16565b6200037a576040805162461bcd60e51b815260206004820152601360248201527f6661696c656420766572696669636174696f6e00000000000000000000000000604482015290519081900360640190fd5b505050505050505050620007f9565b600954610100900460ff1680620003ae5750620003ae6001600160e01b036200062016565b80620003bd575060095460ff16155b620003fa5760405162461bcd60e51b815260040180806020018281038252602e8152602001806200133d602e913960400191505060405180910390fd5b600954610100900460ff1615801562000426576009805460ff1961ff0019909116610100171660011790555b603c80546001600160a01b0319166001600160a01b0384811691909117918290556040519116906000907f8be0079c531659141344cd1fd0a4f28419497f9722a3daafe3b4186f6b6457e0908290a3801562000488576009805461ff00191690555b5050565b6000816001600160a01b03811663f3f4ef79620004b16001600160e01b036200062716565b620004c46001600160e01b036200062c16565b620004d76001600160e01b036200063116565b620004ea6001600160e01b036200063716565b620004fd6001600160e01b036200063d16565b620005106001600160e01b036200069716565b620005236001600160e01b036200069f16565b620005366001600160e01b03620006be16565b6040518963ffffffff1660e01b8152600401808981526020018860028111156200055c57fe5b60ff16815260200187815260200186815260200180602001858152602001848152602001838152602001828103825286818151815260200191508051906020019060200280838360005b83811015620005c0578181015183820152602001620005a6565b50505050905001995050505050505050505060206040518083038186803b158015620005eb57600080fd5b505afa15801562000600573d6000803e3d6000fd5b505050506040513d60208110156200061757600080fd5b50519392505050565b303b155b90565b600190565b600090565b60035490565b60045490565b606060058054806020026020016040519081016040528092919081815260200182805480156200068d57602002820191906000526020600020905b81548152602001906001019080831162000678575b5050505050905090565b600654420190565b600754600090620006b86001600160e01b036200069716565b01905090565b600854600090620006b86001600160e01b036200069716565b828054600181600116156101000203166002900490600052602060002090601f016020900481019282601f106200071a57805160ff19168380011785556200074a565b828001600101855582156200074a579182015b828111156200074a5782518255916020019190600101906200072d565b5062000758929150620007dc565b5090565b8280548282559060005260206000209081019282156200074a57916020028201828111156200074a5782518255916020019190600101906200072d565b8280548282559060005260206000209081019282156200074a579160200282015b828111156200074a578251829060ff16905591602001919060010190620007ba565b6200062491905b80821115620007585760008155600101620007e3565b610b3480620008096000396000f3fe608060405234801561001057600080fd5b50600436106101215760003560e01c80636f24f8a1116100ad5780639b3a8a07116100715780639b3a8a07146102fc578063a61e393a14610304578063aa3daba91461030c578063cb00e7d314610338578063f2fde38b1461035e57610121565b80636f24f8a1146102a4578063715018a6146102ac5780637284e416146102b45780638da5cb5b146102bc5780638f32d59b146102e057610121565b8063216b9116116100f4578063216b9116146102415780633cc228fd1461024957806357d682c41461025157806363012d011461027f5780636eb067a01461029c57610121565b806306fdde03146101265780631069143a146101a357806316131a18146101fb5780632019a60814610227575b600080fd5b61012e610384565b6040805160208082528351818301528351919283929083019185019080838360005b83811015610168578181015183820152602001610150565b50505050905090810190601f1680156101955780820380516001836020036101000a031916815260200191505b509250505060405180910390f35b6101ab61041a565b60408051602080825283518183015283519192839290830191858101910280838360005b838110156101e75781810151838201526020016101cf565b505050509050019250505060405180910390f35b610203610471565b6040518082600281111561021357fe5b60ff16815260200191505060405180910390f35b61022f610476565b60408051918252519081900360200190f35b61022f61047e565b61022f610483565b61027d6004803603604081101561026757600080fd5b50803590602001356001600160a01b0316610489565b005b61027d6004803603602081101561029557600080fd5b503561054a565b61022f610590565b6101ab610596565b61027d6105ec565b61012e61068f565b6102c46106ef565b604080516001600160a01b039092168252519081900360200190f35b6102e86106fe565b604080519115158252519081900360200190f35b61022f61070f565b61022f610722565b61027d6004803603604081101561032257600080fd5b506001600160a01b03813516906020013561072f565b6102e86004803603602081101561034e57600080fd5b50356001600160a01b0316610780565b61027d6004803603602081101561037457600080fd5b50356001600160a01b03166108b6565b60008054604080516020601f60026000196101006001881615020190951694909404938401819004810282018101909252828152606093909290918301828280156104105780601f106103e557610100808354040283529160200191610410565b820191906000526020600020905b8154815290600101906020018083116103f357829003601f168201915b5050505050905090565b6060600280548060200260200160405190810160405280929190818152602001828054801561041057602002820191906000526020600020905b815481526020019060010190808311610454575050505050905090565b600090565b600654420190565b600190565b60035490565b6104916106fe565b6104e2576040805162461bcd60e51b815260206004820181905260248201527f4f776e61626c653a2063616c6c6572206973206e6f7420746865206f776e6572604482015290519081900360640190fd5b6000819050806001600160a01b031663e0a8f6f5846040518263ffffffff1660e01b815260040180828152602001915050600060405180830381600087803b15801561052d57600080fd5b505af1158015610541573d6000803e3d6000fd5b50505050505050565b6040805162461bcd60e51b81526020600482015260136024820152726e6f742063616c6c2d65786563757461626c6560681b604482015290519081900360640190fd5b50565b60045490565b606060058054806020026020016040519081016040528092919081815260200182805480156104105760200282019190600052602060002090815481526020019060010190808311610454575050505050905090565b6105f46106fe565b610645576040805162461bcd60e51b815260206004820181905260248201527f4f776e61626c653a2063616c6c6572206973206e6f7420746865206f776e6572604482015290519081900360640190fd5b603c546040516000916001600160a01b0316907f8be0079c531659141344cd1fd0a4f28419497f9722a3daafe3b4186f6b6457e0908390a3603c80546001600160a01b0319169055565b60018054604080516020601f600260001961010087891615020190951694909404938401819004810282018101909252828152606093909290918301828280156104105780601f106103e557610100808354040283529160200191610410565b603c546001600160a01b031690565b603c546001600160a01b0316331490565b600060075461071c610476565b01905090565b600060085461071c610476565b6040805162461bcd60e51b815260206004820152601b60248201527f6e6f742064656c656761746563616c6c2d65786563757461626c650000000000604482015290519081900360640190fd5b5050565b6000816001600160a01b03811663f3f4ef7961079a61047e565b6107a2610471565b6107aa610483565b6107b2610590565b6107ba610596565b6107c2610476565b6107ca61070f565b6107d2610722565b6040518963ffffffff1660e01b8152600401808981526020018860028111156107f757fe5b60ff16815260200187815260200186815260200180602001858152602001848152602001838152602001828103825286818151815260200191508051906020019060200280838360005b83811015610859578181015183820152602001610841565b50505050905001995050505050505050505060206040518083038186803b15801561088357600080fd5b505afa158015610897573d6000803e3d6000fd5b505050506040513d60208110156108ad57600080fd5b50519392505050565b6108be6106fe565b61090f576040805162461bcd60e51b815260206004820181905260248201527f4f776e61626c653a2063616c6c6572206973206e6f7420746865206f776e6572604482015290519081900360640190fd5b61058d816001600160a01b0381166109585760405162461bcd60e51b8152600401808060200182810382526026815260200180610aac6026913960400191505060405180910390fd5b603c546040516001600160a01b038084169216907f8be0079c531659141344cd1fd0a4f28419497f9722a3daafe3b4186f6b6457e090600090a3603c80546001600160a01b0319166001600160a01b0392909216919091179055565b600954610100900460ff16806109cd57506109cd610aa5565b806109db575060095460ff16155b610a165760405162461bcd60e51b815260040180806020018281038252602e815260200180610ad2602e913960400191505060405180910390fd5b600954610100900460ff16158015610a41576009805460ff1961ff0019909116610100171660011790555b603c80546001600160a01b0319166001600160a01b0384811691909117918290556040519116906000907f8be0079c531659141344cd1fd0a4f28419497f9722a3daafe3b4186f6b6457e0908290a3801561077c576009805461ff00191690555050565b303b159056fe4f776e61626c653a206e6577206f776e657220697320746865207a65726f2061646472657373436f6e747261637420696e7374616e63652068617320616c7265616479206265656e20696e697469616c697a6564a265627a7a72315820bd7c33093646545f9ac70951b5896acc25d11238d7e514db30fb8567055a669664736f6c63430005110032436f6e747261637420696e7374616e63652068617320616c7265616479206265656e20696e697469616c697a6564",
  "linkReferences": {},
  "deployedLinkReferences": {}
}